:100000000C949B000C94C3000C94C3000C94C3008C
:100010000C94C3000C94C3000C94C3000C949B0676
:100020000C94C3000C94C3000C94C3000C94E00720
:100030000C94C3000C94C3000C94C3000C94C30034
:100040000C94460C0C94C3000C940E0B0C94400BB7
:100050000C94C3000C94C3000C94C3000C94C30014
:100060000C94C3000C94C300636D00536F6E6172F7
:100070002064697374616E63653A20005374617221
:100080007400534552564F5F50484153455F5741A6
:100090004954494E4700534552564F5F50484153CB
:1000A000455F53544F50454400534552564F5F509F
:1000B000484153455F474554494E475F414E474C81
:1000C000452E204E65787420706F736974696F6E69
:1000D000203D20000000000800020100000304078A
:1000E0000000000000000000010204081020408011
:1000F0000102040810200102040810200404040472
:1001000004040404020202020202030303030303C1
:100110000000000023002600290000000000250048
:1001200028002B0000000000240027002A001B02EA
:100130002505D807700B11241FBECFEFD8E0DEBF16
:10014000CDBF11E0A0E0B1E0EEEFF6E202C0059015
:100150000D92AC32B107D9F722E0ACE2B1E001C0B8
:100160001D92AC33B207E1F710E0CBE9D0E004C058
:100170002197FE010E94B210C739D107C9F70E942A
:100180009E0B0C947D130C9400000F931F93CF9340
:10019000DF93CDB7DEB72C970FB6F894DEBF0FBE56
:1001A000CDBF86E391E00E94FC05882309F441C09D
:1001B0000091610110E00E591E4F6091360170915F
:1001C0003701809138019091390129E330E040E016
:1001D00050E00E946610F801208381E080935C016A
:1001E0006BE670E082E991E00E94EC0B60913001D7
:1001F000709131014AE0CE0101960E94490FBE0183
:100200006F5F7F4FCE0107960E94FC0E68E670E09C
:10021000CE0107960E941310BC0182E991E00E9472
:10022000340CCE0107960E94770ECE0101960E94F3
:10023000770E2C960FB6F894DEBF0FBECDBFDF91C0
:10024000CF911F910F91089526E040E052EC61E0BC
:1002500070E082E991E00E94A90A6CE770E082E90F
:1002600091E00E94220C61E08DE00E94CB0D61E0E4
:100270008EE00E94CB0D61E08EE00E94070E8DEFB4
:100280009FEF0E94A3036AE070E086E691E00E947F
:100290003D096CE370E086E691E00E94870968EC16
:1002A00070E080E090E00E94C10C86E691E00E9440
:1002B00043090E94900C6093320170933301809344
:1002C0003401909335010E94900C60935D0170930E
:1002D0005E0180935F01909360010E94900C609397
:1002E0002C0170932D0180932E0190932F0108957E
:1002F0000F931F93CF930E94900C00912C011091AB
:100300002D0120912E0130912F0160177107820776
:10031000930708F455C0D901C801C296A11DB11DAB
:1003200080932C0190932D01A0932E01B0932F0167
:1003300088EC90E09093310180933001C0E00E94FE
:10034000C206C81798F4EC2FF0E0EE59FE4F8081FA
:1003500090E020913001309131018217930724F40D
:100360009093310180933001CF5FE9CF80913001CC
:10037000909131018436910524F00E94A00360E041
:100380001AC08091300190913101C2973CF40E94D3
:10039000A003873918F061E086E90DC08091300133
:1003A00090913101843691055CF40E94A003863C53
:1003B00038F061E085ECCF911F910F910C94900380
:1003C000CF911F910F910895CF92DF92EF92FF92FC
:1003D0000E94900CC0903201D0903301E090340123
:1003E000F09035016C157D058E059F05F8F0209184
:1003F0005B012223D9F0D701C601C296A11DB11D10
:100400008093320190933301A0933401B09335016E
:1004100010925C0140E050E065EC70E086E391E012
:10042000FF90EF90DF90CF900C947C06FF90EF90C0
:10043000DF90CF90089528EC30E04FE060E186E354
:1004400091E00C94B405CF9382E991E00E94E30916
:10045000181619060CF074C082E991E00E94FD099B
:10046000C82F803239F4809148018033D1F460E0A4
:100470008EE015C0883541F40E947F03811111C0C0
:100480001092060161E00AC0883759F40E947F0388
:10049000811107C081E08093060160E08DE00E9439
:1004A000070E80910601882309F448C0C63419F468
:1004B0000E94E90343C0C73419F40E940C043EC0F3
:1004C000C93419F40E94350439C0C23419F40E94A9
:1004D0005E0434C0C83419F40E9481042FC0CA34A9
:1004E00019F40E94AA042AC0CC3419F40E94D3043F
:1004F00025C0C23519F40E94FC0420C0C33529F47C
:1005000064E184E10E94580319C08C2F8F7D8555CA
:100510008330A0F080ED8C0F8A3018F0C13781F75E
:100520008AE02FE5829FC00111246AE070E00E94FA
:100530005210862F60E08A560E949003C0934801B3
:10054000CF9108950E9423020E94E4010E94D606E2
:100550000C947801FC0182810895FC016683662376
:1005600011F061E001C060E080810C94070EFC0195
:1005700086810895FC0183810895FC01928199236D
:1005800031F02381892F90E0820F911D089580E042
:1005900090E00895CF93DF93EC016A830E94BD023F
:1005A000BC018981DF91CF910C94430D1F93CF93B0
:1005B000DF93EC01862F1A821C821B8295EF9D83AC
:1005C00011E01E836883498361E00E94CB0D61E0E6
:1005D00089810E94CB0D1E8361E088810E94070EF5
:1005E00060E0CE01DF91CF911F910C94CA02FC0113
:1005F00065832281621710F40C94CA0208956B304F
:1006000008F06AE070E0FC017483638362810C94FB
:10061000CA02DC0112962C91211102C066E90CC0BD
:10062000E62FF0E0E20FF11DDC0115964C9150E051
:100630004E175F071CF0620F0C94CA020895FC016C
:100640004281442369F0242F30E0261B31092639EA
:10065000310514F460E002C0461B642F0C94CA02FA
:1006600008951F93CF93DF93182FD62F81E591E044
:100670000E94AA02C82F8AE491E00E94AA02C8132D
:1006800007C0612F81E591E00E9409036D2F04C02E
:100690008C1728F46C2F681B8AE491E004C0682F43
:1006A0006C1B81E591E0DF91CF911F910C940903C0
:1006B0001F93CF93DF93182FD62F81E591E00E94EF
:1006C000AA02C82F8AE491E00E94AA02C81307C0B8
:1006D000612F81E591E00E941F036D2F09C08C17E7
:1006E00028F46C2F681B81E591E004C0682F6C1B17
:1006F0008AE491E0DF91CF911F910C941F03CF9377
:1007000081E591E00E94AA02C82F8AE491E00E944C
:10071000AA02982F8C2FC91708F4892FCF9108951A
:10072000611102C0809349016091490181E591E026
:100730000E94F702609149018AE491E00C94F7026B
:10074000809149010895EF92FF920F931F93CF93E9
:10075000DF930097B9F17C018AE491E00E94BA022C
:10076000082F10E081E591E00E94BA02C82FD0E086
:10077000F7FE0BC00115110529F00E0D1F1D17FF07
:1007800011C009C0CE19DF090DC0209749F0CE195C
:10079000DF09D7FF07C0C0E0D0E000E010E002C0F2
:1007A0000E0D1F1D602F8AE491E00E94FF026C2F46
:1007B00081E591E0DF91CF911F910F91FF90EF9034
:1007C0000C94FF02DF91CF911F910F91FF90EF905A
:1007D000089581E591E00E94B702811105C00E9451
:1007E0007F03882339F014C08AE491E00E94B702A5
:1007F0008823A9F361E081E591E00E94AD0261E008
:100800008AE491E00E94AD0265E085E00C9431033A
:1008100064E184E10C94580381E591E00E94B70201
:10082000811105C00E947F03882339F01AC08AE431
:1008300091E00E94B7028823A9F361E081E591E08D
:100840000E94AD0261E08AE491E00E94AD0265E0A1
:1008500081E591E00E94090365E08AE491E00C944F
:100860001F0364E184E10C94580381E591E00E9448
:10087000B702811105C00E947F03882339F01AC096
:100880008AE491E00E94B7028823A9F361E081E540
:1008900091E00E94AD0261E08AE491E00E94AD0225
:1008A00065E081E591E00E941F0365E08AE491E044
:1008B0000C94090364E184E10C94580381E591E010
:1008C0000E94B702882329F00E947F03882339F011
:1008D00014C08AE491E00E94B7028111F5CF60E074
:1008E00081E591E00E94AD0260E08AE491E00E941F
:1008F000AD0265E085E00C94310364E184E10C9481
:10090000580381E591E00E94B702882329F00E94F4
:100910007F03882339F01AC08AE491E00E94B7026D
:100920008111F5CF60E081E591E00E94AD0260E0C9
:100930008AE491E00E94AD0265E081E591E00E94C9
:100940001F0365E08AE491E00C94090364E184E10B
:100950000C94580381E591E00E94B702882329F0A6
:100960000E947F03882339F01AC08AE491E00E9434
:10097000B7028111F5CF60E081E591E00E94AD0200
:1009800060E08AE491E00E94AD0265E081E591E0DB
:100990000E94090365E08AE491E00C941F0364E17E
:1009A00084E10C94580381E591E00E94B702811123
:1009B00005C00E947F03882339F01AC08AE491E0C1
:1009C0000E94B7028111F5CF61E081E591E00E94BC
:1009D000AD0260E08AE491E00E94AD0265E081E54D
:1009E00091E00E94090365E08AE491E00C94090318
:1009F00064E184E10C94580381E591E00E94B70220
:100A0000882329F00E947F03882339F01AC08AE4E2
:100A100091E00E94B7028823A9F360E081E591E0AC
:100A20000E94AD0261E08AE491E00E94AD0265E0BF
:100A300081E591E00E94090365E08AE491E00C946D
:100A4000090364E184E10C94580346E067E081E522
:100A500091E00E94D60245E064E08AE491E00C94C3
:100A6000D6020F931F93CF93DF93EC01EA85FB85AA
:100A700090818C81892B8083EE81FF8190818C8194
:100A800080958923808384E090E00E94FD0CEE81B4
:100A9000FF8190818C81892B80838AE090E00E9485
:100AA000FD0CEE81FF8190818C818095892380836C
:100AB000EA85FB8590818C81809589238083E885F8
:100AC000F98590818D81892311F080E036C00E94E4
:100AD0009C0C2C853D85890120E030E00855194E9D
:100AE0002F4F3F4FDC01CB01800F911FA21FB31F7F
:100AF0008E879F87A88BB98BE885F98590818D813A
:100B0000892361F40E949C0C0E851F8528893989F0
:100B1000061717072807390778F7D7CF0E949C0CCC
:100B20002C853D85DC01CB01820F931FA11DB11DDA
:100B30008E879F87A88BB98B81E0DF91CF911F9122
:100B40000F9108956F5F7F4F49E3469F9001479F44
:100B5000300D11242E384FE6340710F02DE83FE613
:100B6000FC01358724870895DC0170E0FB01E85122
:100B7000FF4FE4911496EC93149750E0FA01E8517A
:100B8000FF4FE4911596EC93159764507F4FFB014E
:100B90008491E82FF0E0EE0FFF1FE65EFE4F859197
:100BA000949117969C938E931697FA01E450FF4FF9
:100BB000E491F0E0EE0FFF1FE05FFE4F859194910E
:100BC00019969C938E931897FB016491E62FF0E0A1
:100BD000EE0FFF1FEC5DFE4F859194911B969C9349
:100BE0008E931A97B901CD010C94A205E0E7F0E0CD
:100BF00080818D7F808308958F929F92AF92BF9264
:100C0000CF92DF92EF92FF920F931F93CF93DF93D8
:100C1000EC010E949C0C0E851F85288939890617D6
:100C200017072807390728F50E94F6050E949C0C33
:100C30002C853D856901E12CF12C0E851F852889C5
:100C4000398946015701801A910AA20AB30A95010F
:100C500084010D50110921093109DC01CB01800FFC
:100C6000911FA21FB31F88839983AA83BB8381E04E
:100C700007C0E885F98590818D818923A9F280E0FC
:100C8000DF91CF911F910F91FF90EF90DF90CF9068
:100C9000BF90AF909F908F9008950E94F605E6EB6D
:100CA000F0E080818F7D808382E08093B00084E0DB
:100CB0008093B1001092B2000895CF93DF93EC01BE
:100CC00070935901609358010E944D06CE0196958C
:100CD00087959695879501978F3F910519F010F0AC
:100CE0008FEF90E08093B3008091700082608093DA
:100CF0007000DF91CF9108950F931F93CF93DF93EF
:100D0000EC018B014115510519F0BA010E94A205B1
:100D1000CE010E943105882349F0B80188E190E0B6
:100D2000DF91CF911F910F910C945D06DF91CF91D0
:100D30001F910F9108951F920F920FB60F921124D9
:100D40002F933F934F935F936F937F938F939F93D3
:100D5000AF93BF93EF93FF93E0915801F091590146
:100D60000995FF91EF91BF91AF919F918F917F91E5
:100D70006F915F914F913F912F910F900FBE0F9008
:100D80001F90189584E00895809161018F5F8430F1
:100D900018F48093610102C010926101E091610139
:100DA000F0E0E95FFE4F8081865F08950F931F9307
:100DB000CF93DF93CDB7DEB762970FB6F894DEBF5F
:100DC0000FBECDBF0E94900C00915D0110915E019D
:100DD00020915F01309160016017710782079307CE
:100DE00008F4DBC080915A01813009F45FC020F023
:100DF000823009F484C0C2C080915C01882309F468
:100E0000CCC010925C0169E070E089E691E00E943C
:100E10003D090E94C406182F682F70E089E691E012
:100E20000E94870981E080935A010E94900CDC01A6
:100E3000CB01845D9E4FAF4FBF4F80935D01909378
:100E40005E01A0935F01B09360014AE0612FCE0183
:100E500001960E941C0F0E94900CAB01BC012AE07D
:100E6000CE010D960E94750FBE01635F7F4FCE01CC
:100E700007960E94FC0E69EA70E0CE0107960E9478
:100E80001310BE016F5F7F4F0E940010BC0182E90A
:100E900091E00E94340CCE0107960E94770ECE019D
:100EA0000D960E94770ECE01019661C089E691E011
:100EB0000E94430982E080935A010E94900CDC0159
:100EC000CB014E96A11DB11D80935D0190935E01F3
:100ED000A0935F01B09360010E94900CAB01BC0134
:100EE0002AE0CE0107960E94750FBE01695F7F4F11
:100EF000CE0101960E94FC0E66E970E029C0809147
:100F00005C018823B9F110925B0110925A010E9492
:100F1000900CDC01CB014E96A11DB11D80935D01AB
:100F200090935E01A0935F01B09360010E94900CCA
:100F3000AB01BC012AE0CE0107960E94750FBE01ED
:100F4000695F7F4FCE0101960E94FC0E62E870E05F
:100F5000CE0101960E941310BC0182E991E00E942B
:100F6000340CCE0101960E94770ECE0107960E94A6
:100F7000770E13C081E080935B010FC00E94900C3C
:100F8000DC01CB014E96A11DB11D80935D019093B4
:100F90005E01A0935F01B093600162960FB6F89472
:100FA000DEBF0FBECDBFDF91CF911F910F9108958E
:100FB00089E691E00E94A10886E691E00C94A108E0
:100FC0001F920F920FB60F9211242F933F934F93BE
:100FD0005F936F937F938F939F93AF93BF93EF93A1
:100FE000FF9380916D0187FF05C0109285001092DC
:100FF00084001BC020916D01022E000C330B8091E8
:101000006C0190E02817390784F480916D01082E57
:10101000000C990BFC01EE0FFF1F8E0F9F1FFC01B0
:10102000E259FE4F808186FD15C080916D018F5F72
:1010300080936D0120916D01022E000C330B809185
:101040006C0190E028173907C4F480916D018C3051
:1010500064F113C080916D01082E000C990BFC0106
:10106000EE0FFF1F8E0F9F1FFC01E259FE4F808184
:1010700060E08F730E94070ED8CF8091840090911A
:101080008500049680349C4918F480E49CE905C0EE
:1010900080918400909185000496909389008093BC
:1010A00088008FEF80936D013BC0209184003091C8
:1010B000850080916D01082E000C990BFC01EE0F4C
:1010C000FF1F8E0F9F1FFC01E259FE4F818192810D
:1010D000820F931F909389008093880080916D0107
:1010E000082E000C990BFC01EE0FFF1F8E0F9F1FA7
:1010F000FC01E259FE4F808186FF12C080916D0194
:10110000082E000C990BFC01EE0FFF1F8E0F9F1F86
:10111000FC01E259FE4F808161E08F730E94070E4F
:10112000FF91EF91BF91AF919F918F917F916F91BF
:101130005F914F913F912F910F900FBE0F901F9095
:101140001895FC0190916C019C30A0F481E0890F0E
:1011500080936C019083892F90E0FC01EE0FFF1FBC
:101160008E0F9F1FFC01E259FE4F88EB9BE092839C
:10117000818308958FEF80830895DF92EF92FF922D
:101180000F931F93CF93DF93EC01D62E7A01890141
:1011900088818C3008F068C061E08D2D0E94CB0DF5
:1011A0008881E82FF0E09F01220F331FE20FF31F29
:1011B000E259FE4F9D2D9F732081207CD22ED92A8B
:1011C000D08220E232E02E193F0937FF02C02D5FA6
:1011D0003F4F3595279535952795298320E639E0AA
:1011E000201B310B37FF02C02D5F3F4F35952795F0
:1011F000359527952A832CE0622F0E943210289F74
:10120000B001112440E050E09B01240F351FF9018B
:10121000EE0FFF1F2E0F3F1FF901E259FE4F908185
:1012200096FD16C04F5F5F4F4C30510569F7811135
:101230000FC01092800082E08093810010928500A0
:1012400010928400B19A80916F00826080936F0049
:10125000E881F0E0CF01880F991FE80FF91FE259EC
:10126000FE4F8081806480838881DF91CF911F91C0
:101270000F91FF90EF90DF90089520E639E040E273
:1012800052E00C94BD08DC01EC91F0E0CF01880F36
:10129000991FE80FF91FE259FE4F80818F7B8083F1
:1012A0000895FC0190819C3088F5818128E830E028
:1012B000281B310987FD3395220F331F220F331F5F
:1012C0006217730784F0828148E552E0481B510998
:1012D00087FD5395440F551F440F551F9B0146171B
:1012E00057070CF49A0122503109220F331F4FB7D0
:1012F000F894892F90E0FC01EE0FFF1F8E0F9F1FC7
:10130000FC01E259FE4F328321834FBF0895AF9213
:10131000BF92CF92DF92EF92FF920F931F93CF93E2
:10132000DF93EC01603282E078070CF03FC077FD7C
:1013300006C0653B71052CF064EB70E002C060E014
:1013400070E0898128E830E05901A81AB10887FDCA
:10135000B394AA0CBB1CAA0CBB1C0B2C000CCC0815
:10136000DD08072E000C880B990B2A8108E512E096
:10137000021B110927FD1395000F111F000F111FEC
:10138000012E000C220B330B3F932F931F930F93CF
:1013900014EBE12EF12C00E010E020E030E0A90198
:1013A0000E94360E0F900F900F900F90CE01DF919C
:1013B000CF911F910F91FF90EF90DF90CF90BF9052
:1013C000AF900C945109FC01918D228D892F90E0F2
:1013D000805C9F4F821B91098F7399270895FC01B0
:1013E000918D828D981731F0828DE80FF11D858DDA
:1013F00090E008958FEF9FEF0895FC01918D828D0D
:10140000981761F0828DDF01A80FB11D5D968C9158
:10141000928D9F5F9F73928F90E008958FEF9FEF63
:10142000089586E69BE0892B49F080E090E0892BC7
:1014300029F00E94660B81110C9400000895FC01B4
:10144000848DDF01A80FB11DA35ABF4F2C91848D4D
:1014500090E001968F739927848FA689B7892C9382
:10146000A089B1898C9180648C93938D848D98131D
:1014700006C00288F389E02D80818F7D80830895E6
:10148000EF92FF920F931F93CF93DF93EC0181E0D4
:10149000888F9B8D8C8D981305C0E889F989808190
:1014A00085FD24C0F62E0B8D10E00F5F1F4F0F73CC
:1014B0001127E02E8C8DE8120CC00FB607FCFACF76
:1014C000E889F989808185FFF5CFCE010E941F0A46
:1014D000F1CF8B8DFE01E80FF11DE35AFF4FF08233
:1014E0000B8FEA89FB898081806207C0EE89FF89C2
:1014F0006083E889F98980818064808381E090E05D
:10150000DF91CF911F910F91FF90EF900895CF93AE
:10151000DF93EC01888D8823C9F0EA89FB898081FB
:1015200085FD05C0A889B9898C9186FD0FC00FB6CD
:1015300007FCF5CF808185FFF2CFA889B9898C910E
:1015400085FFEDCFCE010E941F0AE7CFDF91CF913B
:101550000895CF92DF92EF92FF921F93CF93DF9384
:10156000EC016A017B01122FE889F98982E080830E
:101570004115514E61057105B1F060E079E08DE3F0
:1015800090E0A70196010E946610DA01C901019757
:10159000A109B109B695A795979587959C01211545
:1015A00080E13807A8F0E889F989108260E874E8DA
:1015B0008EE190E0A70196010E946610DA01C90150
:1015C0000197A109B109B695A795979587959C01B3
:1015D000EC85FD853083EE85FF852083188EEC89B0
:1015E000FD891083EA89FB89808180618083EA8993
:1015F000FB89808188608083EA89FB89808180689B
:101600008083EA89FB8980818F7D8083DF91CF9100
:101610001F91FF90EF90DF90CF9008951F920F924F
:101620000FB60F9211242F938F939F93EF93FF93F5
:10163000E091A201F091A3018081E091A801F091D5
:10164000A90182FD12C090818091AB018F5F8F73E1
:101650002091AC01821751F0E091AB01F0E0EE5621
:10166000FE4F958F8093AB0101C08081FF91EF9178
:101670009F918F912F910F900FBE0F901F901895F3
:101680001F920F920FB60F9211242F933F934F93F7
:101690005F936F937F938F939F93AF93BF93EF93DA
:1016A000FF9382E991E00E941F0AFF91EF91BF91A1
:1016B000AF919F918F917F916F915F914F913F91EA
:1016C0002F910F900FBE0F901F90189582E991E017
:1016D0000E94E30921E0892B09F420E0822F08957C
:1016E000E2E9F1E01382128288EE93E0A0E0B0E03C
:1016F00084839583A683B7838FE091E09183808371
:1017000085EC90E09587848784EC90E097878687C6
:1017100080EC90E0918B808B81EC90E0938B828BBE
:1017200082EC90E0958B848B86EC90E0978B868B97
:10173000118E128E138E148E089508950E94080D36
:101740000E949D0B0E942401C1E1DAE00E94A202E6
:101750002097E1F30E94110AF9CFCF92DF92EF9226
:10176000FF920F931F93CF93DF936C017A018B014C
:10177000C0E0D0E0CE15DF0581F0D8016D918D017C
:10178000D601ED91FC910190F081E02DC601099503
:10179000892B11F02196EECF7E01C701DF91CF9109
:1017A0001F910F91FF90EF90DF90CF9008956115FA
:1017B000710579F0FB0101900020E9F73197AF0145
:1017C000461B570BDC01ED91FC910280F381E02D6B
:1017D000099480E090E00895EF92FF920F931F9399
:1017E000CF93DF938C017B01C0E0D0E0F701EC0FD9
:1017F000FD1F6491662361F0D801ED91FC91019089
:10180000F081E02DC8010995892B11F02196EECFCA
:10181000CE01DF91CF911F910F91FF90EF9008952E
:10182000DB0114964D915C9115976D917C91DC01D3
:10183000ED91FC910280F381E02D09946BE171E060
:101840000C94D70B0F931F93CF93DF93EC010E945F
:10185000EC0B8C01CE010E941E0C800F911FDF91BA
:10186000CF911F910F9108950F931F93CF93DF9303
:10187000EC010E94100C8C01CE010E941E0C800F06
:10188000911FDF91CF911F910F9108951F920F9299
:101890000FB60F9211242F933F938F939F93AF9383
:1018A000BF938091300290913102A0913202B091A9
:1018B000330230912F0223E0230F2D3720F40196BD
:1018C000A11DB11D05C026E8230F0296A11DB11D63
:1018D00020932F028093300290933102A093320222
:1018E000B09333028091340290913502A091360278
:1018F000B09137020196A11DB11D809334029093DF
:101900003502A0933602B0933702BF91AF919F91F9
:101910008F913F912F910F900FBE0F901F901895B0
:101920002FB7F894609130027091310280913202A9
:10193000909133022FBF08953FB7F89480913402FD
:1019400090913502A0913602B091370226B5A89B3E
:1019500005C02F3F19F00196A11DB11D3FBFBA2F41
:10196000A92F982F8827820F911DA11DB11DBC01A1
:10197000CD0142E0660F771F881F991F4A95D1F766
:1019800008958F929F92AF92BF92CF92DF92EF9283
:10199000FF926B017C010E949C0C4B015C01C11405
:1019A000D104E104F10401F10E9421100E949C0C79
:1019B000DC01CB0188199909AA09BB09883E93402B
:1019C000A105B10560F321E0C21AD108E108F108D0
:1019D00088EE880E83E0981EA11CB11CC114D104AE
:1019E000E104F10419F7DBCFFF90EF90DF90CF9087
:1019F000BF90AF909F908F9008958230910538F0FE
:101A0000880F991F880F991F05970197F1F708957F
:101A1000789484B5826084BD84B5816084BD85B5C9
:101A2000826085BD85B5816085BDEEE6F0E0808190
:101A300081608083E1E8F0E01082808182608083B1
:101A4000808181608083E0E8F0E080818160808334
:101A5000E1EBF0E0808184608083E0EBF0E0808166
:101A600081608083EAE7F0E0808184608083808108
:101A700082608083808181608083808180688083B0
:101A80001092C10008951F93CF93DF93182FEB019D
:101A900061E00E94CB0D209711F460E004C0CF3FBD
:101AA000D10539F461E0812FDF91CF911F910C9422
:101AB000070EE12FF0E0EC52FF4FE491E330F9F034
:101AC00048F4E130B9F0E230A1F584B5806284BD1C
:101AD000C8BD34C0E730E9F0E83019F1E43049F529
:101AE00080918000806280938000D0938B00C093AF
:101AF0008A0024C084B5806884BDC7BD1FC08091A2
:101B00008000806880938000D0938900C093880013
:101B100015C08091B00080688093B000C093B3007E
:101B20000DC08091B00080628093B000C093B4007B
:101B300005C0C038D1050CF0B5CFAFCFDF91CF9144
:101B40001F910895833081F028F4813099F082301C
:101B5000A1F008958730A9F08830B9F08430D1F42D
:101B6000809180008F7D03C0809180008F7780936B
:101B70008000089584B58F7702C084B58F7D84BDC1
:101B800008958091B0008F7703C08091B0008F7D61
:101B90008093B0000895CF93DF9390E0FC01E8516B
:101BA000FF4F2491FC01E450FF4F8491882361F1A1
:101BB00090E0880F991FFC01EC5DFE4FC591D49118
:101BC000FC01E65EFE4FA591B491611109C09FB77B
:101BD000F8948881209582238883EC912E230BC072
:101BE000623061F49FB7F8948881322F3095832357
:101BF0008883EC912E2B2C939FBF06C08FB7F8944F
:101C0000E8812E2B28838FBFDF91CF9108951F93FA
:101C1000CF93DF93282F30E0F901EC52FF4F8491EE
:101C2000F901E851FF4FD491F901E450FF4FC491FD
:101C3000CC23C1F0162F81110E94A20DEC2FF0E0F1
:101C4000EE0FFF1FE65EFE4FA591B4919FB7F8948B
:101C5000111104C08C91D095D82302C0EC91DE2BD9
:101C6000DC939FBFDF91CF911F9108954F925F92B8
:101C70006F927F92AF92BF92CF92DF92EF92FF92DC
:101C80000F931F93CF93DF93CDB7DEB729013A01AE
:101C90009B01AC01241935094609570989899A899C
:101CA000AB89BC89BC01CD016A197B098C099D09EE
:101CB0000E942210A80197012419350946095709E5
:101CC0000E948810CA01B9016A0D7B1D8C1D9D1DE3
:101CD000DF91CF911F910F91FF90EF90DF90CF9008
:101CE000BF90AF907F906F905F904F900895FC01F0
:101CF000808191810C945F11CF93DF93EC018881F7
:101D00009981009711F00E945F11198218821D823B
:101D10001C821B821A82DF91CF9108950F931F932B
:101D2000CF93DF93EC018B016F5F7F4F88819981A7
:101D30000E94E811009731F0998388831B830A83FE
:101D400081E001C080E0DF91CF911F910F91089554
:101D5000CF93DF93EC0188819981892B29F08A81C7
:101D60009B818617970760F4CE010E948E0E882310
:101D700041F08C819D81892B19F4E881F9811082D1
:101D800081E0DF91CF910895EF92FF920F931F931F
:101D9000CF93DF93EC017B018A01BA010E94A80E68
:101DA000811104C0CE010E947C0E07C01D830C83EC
:101DB000B701888199810E94C712CE01DF91CF912E
:101DC0001F910F91FF90EF900895CF93DF93EC0157
:101DD000FB018617970761F06081718161157105BC
:101DE00029F0448155810E94C40E02C00E947C0EDD
:101DF000CE01DF91CF910895FC01118210821382F0
:101E00001282158214820C94E50ECF93DF93EC01BD
:101E10006115710559F0FB0101900020E9F7319738
:101E2000AF01461B570B0E94C40E02C00E947C0EDD
:101E3000CE01DF91CF9108950F931F93CF93DF933E
:101E4000CDB7DEB729970FB6F894DEBF0FBECDBF72
:101E50008C01862FF8011182108213821282158262
:101E6000148250E0BE016F5F7F4F90E00E9411131B
:101E7000BE016F5F7F4FC8010E94050F29960FB604
:101E8000F894DEBF0FBECDBFDF91CF911F910F91B0
:101E900008950F931F93CF93DF93CDB7DEB762976B
:101EA0000FB6F894DEBF0FBECDBF8C01CB01F80199
:101EB00011821082138212821582148250E0BE01B8
:101EC0006F5F7F4F0E94CE12BE016F5F7F4FC801D0
:101ED0000E94050F62960FB6F894DEBF0FBECDBF0D
:101EE000DF91CF911F910F9108950F931F93CF937F
:101EF000DF93CDB7DEB7A1970FB6F894DEBF0FBE64
:101F0000CDBF8C01CB01BA01F8011182108213827E
:101F100012821582148230E0AE014F5F5F4F0E9443
:101F2000E412BE016F5F7F4FC8010E94050FA196AA
:101F30000FB6F894DEBF0FBECDBFDF91CF911F91DA
:101F40000F910895EF92FF920F931F93CF93DF931A
:101F50006115710511F480E01CC041155105C1F0F7
:101F60007B01EC018C819D818A01080F191FB8014A
:101F7000CE010E94A80E882371F3288139818C81BB
:101F80009D81B701820F931F0E94C7121D830C838E
:101F900081E0DF91CF911F910F91FF90EF90089515
:101FA000EF92FF920F931F93CF93DF93611571050B
:101FB00011F480E01EC08B01EC01CB010E94B51230
:101FC0000097B1F02C813D817C01E20EF31EB70138
:101FD000CE010E94A80E882361F3288139818C816B
:101FE0009D81B801820F931F0E94AE12FD82EC8288
:101FF00081E0DF91CF911F910F91FF90EF900895B5
:10200000CF93DF93EC01FB014481558160817181A5
:102010000E94A20F811103C0CE010E947C0ECE014E
:10202000DF91CF910895CF93DF93EC010E94D00F01
:10203000811103C0CE010E947C0ECE01DF91CF91B1
:1020400008950895DB018F939F930E94A710BF917D
:10205000AF91A29F800D911DA39F900DB29F900DF7
:1020600011240895991B79E004C0991F961708F070
:10207000961B881F7A95C9F780950895AA1BBB1BEC
:1020800051E107C0AA1FBB1FA617B70710F0A61B78
:10209000B70B881F991F5A95A9F780959095BC0199
:1020A000CD01089597FB072E16F4009407D077FD15
:1020B00009D00E943E1007FC05D03EF49095819512
:1020C0009F4F0895709561957F4F0895A1E21A2E54
:1020D000AA1BBB1BFD010DC0AA1FBB1FEE1FFF1FCC
:1020E000A217B307E407F50720F0A21BB30BE40B1C
:1020F000F50B661F771F881F991F1A9469F7609563
:102100007095809590959B01AC01BD01CF0108951C
:10211000052E97FB1EF400940E949F1057FD07D0D8
:102120000E94661007FC03D04EF40C949F1050954B
:102130004095309521953F4F4F4F5F4F08959095B3
:102140008095709561957F4F8F4F9F4F08950E94A6
:10215000B810A59F900DB49F900DA49F800D911D68
:1021600011240895EE0FFF1F0590F491E02D0994BE
:10217000A29FB001B39FC001A39F700D811D1124C8
:10218000911DB29F700D811D1124911D08950F9313
:102190001F93CF93DF938230910510F482E090E09B
:1021A000E0913A02F0913B0220E030E0A0E0B0E0A4
:1021B000309719F1408151810281138148175907E5
:1021C000C8F08417950769F4109731F012960C93B4
:1021D000129713961C9327C000933A0210933B0268
:1021E00022C02115310519F04217530718F49A013E
:1021F000BD01EF01DF01F801DBCF21153105F9F059
:10220000281B390B2430310580F48A819B816115AC
:10221000710521F0FB019383828304C090933B02FC
:1022200080933A02FE01329644C0FE01E20FF31F92
:102230008193919322503109398328833AC02091A8
:10224000380230913902232B41F420910201309160
:10225000030130933902209338022091000130911C
:1022600001012115310541F42DB73EB7409104011C
:1022700050910501241B350BE0913802F091390291
:10228000E217F307A0F42E1B3F0B2817390778F04D
:10229000AC014E5F5F4F2417350748F04E0F5F1FAC
:1022A00050933902409338028193919302C0E0E049
:1022B000F0E0CF01DF91CF911F910F910895CF935F
:1022C000DF93009709F481C0FC01329713821282D8
:1022D000A0913A02B0913B02109781F420813181A4
:1022E000820F931F20913802309139022817390745
:1022F00051F5F0933902E093380267C0ED0120E018
:1023000030E0CE17DF0740F44A815B819E01411522
:102310005105F1F0EA01F5CFD383C28340815181A9
:10232000840F951FC817D90759F488819981840FA4
:10233000951F0296918380838A819B8193838283F8
:102340002115310529F4F0933B02E0933A023DC098
:10235000E901FB83EA8349915991C40FD51FEC171A
:10236000FD0761F480819181840F951F0296E90138
:1023700099838883828193819B838A83E0E0F0E064
:1023800012968D919C911397009719F0FD01DC0135
:10239000F7CF8D919C9111979D012E5F3F4F820F3A
:1023A000931F20913802309139022817390769F4B8
:1023B000309729F410923B0210923A0202C0138225
:1023C0001282B0933902A0933802DF91CF91089521
:1023D000A0E0B0E0EEEEF1E10C944A13EC010097BE
:1023E00021F4CB010E94C710B4C0FC01E60FF71F17
:1023F0009C0122503109E217F30708F4A8C0D90163
:102400000D911C91119706171707B0F005301105B3
:1024100008F49BC0C80104978617970708F495C075
:1024200002501109061B170B019311936D937C93B6
:10243000CF010E945F1189C05B01A01AB10A4C0153
:10244000800E911EA0913A02B0913B02612C712C3A
:10245000E12CF12C109709F446C08D919C911197B5
:10246000A815B905B1F56C0142E0C40ED11CCA141F
:10247000DB0478F14C018A189B08640142E0C40E29
:10248000D11C1296BC9012971396AC91B5E0CB1666
:10249000D10440F0B282A38391828082D9016D93EE
:1024A0007C9309C00E5F1F4F800F911FF90191832C
:1024B0008083EB2DFA2FE114F10431F0D70113964C
:1024C000FC93EE93129741C0F0933B02E0933A02E3
:1024D0003CC06816790608F43C017D0112960D9007
:1024E000BC91A02DB7CF8091380290913902881607
:1024F0009906E1F466167706C8F480910001909180
:102500000101009741F48DB79EB7409104015091AD
:102510000501841B950BE817F907C8F4F0933902FD
:10252000E0933802F901718360830FC0CB010E94F0
:10253000C7107C01009759F0A801BE010E94BE128D
:10254000CE010E945F11C70104C0CE0102C080E02D
:1025500090E0CDB7DEB7EEE00C946613FB01DC0132
:1025600005900D920020E1F70895FC0105900020F0
:10257000E9F7809590958E0F9F1F0895FB01DC0170
:1025800002C001900D9241505040D8F70895FB01D0
:10259000DC0101900D920020E1F7089545325105CC
:1025A00020F4423010F00C94D912FB011082CB01C0
:1025B0000895BB274A3031F4992322F4BDE2909567
:1025C00081959F4F0C941D132532310520F4223044
:1025D00010F00C94EF12FA011082CA010895BB2783
:1025E000FA01A62F6217710581059105330B30FBA7
:1025F00066F0AA27660F771F881F991FAA1FA217C8
:1026000010F0A21B63953850A9F7A05DAA3308F01B
:10261000A95DA19336F7B111B1931082CA010C9450
:1026200036134532510520F4423010F00C941C133F
:10263000FB011082CB010895BB27FB015527AA2778
:10264000880F991FAA1FA41710F0A41B839550513F
:10265000B9F7A05DAA3308F0A95DA193009779F7B7
:10266000B111B1931192CB010C943613DC01FC0132
:10267000672F71917723E1F7329704C07C916D93B6
:1026800070836291AE17BF07C8F308952F923F92EF
:102690004F925F926F927F928F929F92AF92BF9272
:1026A000CF92DF92EF92FF920F931F93CF93DF931E
:1026B000CDB7DEB7CA1BDB0B0FB6F894DEBF0FBE7B
:1026C000CDBF09942A88398848885F846E847D84C8
:1026D0008C849B84AA84B984C884DF80EE80FD80CA
:1026E0000C811B81AA81B981CE0FD11D0FB6F89440
:0E26F000DEBF0FBECDBFED010895F894FFCF01
:1026FE0000003C022000015A875A2D0000000040C5
:10270E000AAD0BE309FD09EF09870A0D0A006E6198
:0C271E006E00696E66006F7666002E008B
:00000001FF
