S01300004D79526F626F745F3030302E7372656356
S11300000C94B1000C94D9000C94D9000C94D90030
S11300100C94D9000C94D9000C94D9000C94ED07DD
S11300200C94D9000C94D9000C94D9000C94320986
S11300300C94D9000C94D9000C94D9000C94D900D8
S11300400C94980D0C94D9000C94600C0C94920CA4
S11300500C94D9000C94D9000C94D9000C94D900B8
S11300600C94D9000C94D900636D00536F6E6172C7
S11300702064697374616E63653A2000537461721D
S113008074002000204D6178205370656564733AD4
S113009020002000205265616C5370656564733ADA
S11300A020002000205370656564733A2000534596
S11300B052564F5F50484153455F57414954494E4A
S11300C04700534552564F5F50484153455F535480
S11300D04F50454400534552564F5F504841534595
S11300E05F474554494E475F414E474C452E204E8D
S11300F065787420706F736974696F6E203D200099
S113010000000008000201000003040700000000D2
S113011000000000010204081020408001020408CD
S1130120102001020408102004040404040404043C
S1130130020202020202030303030303000000009D
S113014023002600290000000000250028002B00C1
S113015000000000240027002A006E0277062A0906
S1130160C20C11241FBECFEFD8E0DEBFCDBF11E01B
S1130170A0E0B1E0E8E3FAE202C005900D92AC32EF
S1130180B107D9F722E0ACE2B1E001C01D92AC3373
S1130190B207E1F710E0C1EBD0E004C02197FE0103
S11301A00E944F12CD3AD107C9F70E94F00C0C946B
S11301B01A150C9400000F931F93CF93DF93CDB7C0
S11301C0DEB72C970FB6F894DEBF0FBECDBF86E323
S11301D091E00E944E07882309F441C00091610117
S11301E010E00E591E4F60913601709137018091D5
S11301F038019091390129E330E040E050E00E9459
S11302000312F801208381E080935C016BE670E0C7
S113021082E991E00E943E0D6091300170913101BC
S11302204AE0CE0101960E94BC10BE016F5F7F4F71
S1130230CE0107960E946F1068E670E0CE01079623
S11302400E94B011BC0182E991E00E94860DCE01AA
S113025007960E94C90FCE0101960E94C90F2C96E1
S11302600FB6F894DEBF0FBECDBFDF91CF911F91C3
S11302700F91089526E040E052EC61E070E082E9DD
S113028091E00E94FB0B6CE770E082E991E00E9430
S1130290740D61E08DE00E941D0F61E08EE00E940C
S11302A01D0F61E08EE00E94590F8DEF9FEF0E94B9
S11302B0FC036AE070E086E691E00E948F0A6CE33A
S11302C070E086E691E00E94D90A68EC70E080E074
S11302D090E00E94130E86E691E00E94950A0E9427
S11302E0E20D609332017093330180933401909353
S11302F035010E94E20D60935D0170935E0180936D
S11303005F01909360010E94E20D60932C01709351
S11303102D0180932E0190932F0108950F931F9325
S1130320CF930E94E20D00912C0110912D01209198
S11303302E0130912F01601771078207930708F48B
S113034055C0D901C801C296A11DB11D80932C01CD
S113035090932D01A0932E01B0932F0188EC90E08F
S11303609093310180933001C0E00E941408C817B3
S113037098F4EC2FF0E0EE59FE4F808190E020914C
S11303803001309131018217930724F490933101A5
S113039080933001CF5FE9CF80913001909131019A
S11303A08436910524F00E94F90360E01AC080911C
S11303B0300190913101C2973CF40E94F9038739CE
S11303C018F061E086E90DC080913001909131010F
S11303D0843691055CF40E94F903863C38F061E0B0
S11303E085ECCF911F910F910C94E903CF911F914C
S11303F00F910895CF92DF92EF92FF920E94E20D47
S1130400C0903201D0903301E0903401F090350176
S11304106C157D058E059F05F8F020915B01222364
S1130420D9F0D701C601C296A11DB11D8093320136
S113043090933301A0933401B093350110925C0181
S113044040E050E06BED70E086E391E0FF90EF90C8
S1130450DF90CF900C94CE07FF90EF90DF90CF9079
S11304600895CF93DF9300D000D000D0CDB7DEB78E
S1130470CE0101960E947E05BE016F5F7F4F82E927
S113048091E00E94860DCE0101960E94C90FCE0113
S113049001960E94D105BE016F5F7F4F82E991E012
S11304A00E94860DCE0101960E94C90FCE010196CD
S11304B00E942406BE016F5F7F4F82E991E00E9493
S11304C0860DCE0101960E94C90F26960FB6F894A8
S11304D0DEBF0FBECDBFDF91CF91089528EC30E091
S11304E04FE060E186E391E00C940607CF9382E944
S11304F091E00E94350B181619060CF077C082E9BA
S113050091E00E944F0BC82F803239F4809148014A
S11305108033D1F460E08EE015C0883541F40E9448
S1130520D803811111C01092060161E00AC0883716
S113053059F40E94D803811107C081E08093060119
S113054060E08DE00E94590F80910601882309F430
S113055048C0C63419F40E94420443C0C73419F495
S11305600E9465043EC0C93419F40E948E0439C047
S1130570C23419F40E94B70434C0C83419F40E9478
S1130580DA042FC0CA3419F40E9403052AC0CC34FB
S113059019F40E942C0525C0C23519F40E94550592
S11305A020C0C33529F464E184E10E94B10319C079
S11305B08C2F8F7D85558330A0F080ED8C0F8A3091
S11305C018F0C13781F78AE02FE5829FC00111241A
S11305D06AE070E00E94EF11862F60E08A560E9464
S11305E0E903C0934801CF910C943102CF9108954F
S11305F00E9476020E94FA010E9428080C948E013F
S1130600FC0182810895FC0185810895FC016683C3
S1130610662311F061E001C060E080810C94590F01
S1130620FC0186810895FC0183810895FC01928177
S1130630992331F02381892F90E0820F911D089531
S113064080E090E00895CF93DF93EC016A830E94E9
S11306501603BC018981DF91CF910C94950E1F93F1
S1130660CF93DF93EC01862F1A821C821B8295EFB5
S11306709D8311E01E836883498361E00E941D0FFE
S113068061E089810E941D0F1E8361E088810E94C0
S1130690590F60E0CE01DF91CF911F910C94230399
S11306A0FC0165832281621710F40C9423030895DE
S11306B06B3008F06AE070E0FC017483638362814C
S11306C00C942303DC0112962C91211102C066E9DB
S11306D00CC0E62FF0E0E20FF11DDC0115964C9101
S11306E050E04E175F071CF0620F0C94230308952B
S11306F0FC014281442369F0242F30E0261B310998
S11307002639310514F460E002C0461B642F0C94B2
S1130710230308951F93CF93DF93182FD62F81E5DA
S113072091E00E940003C82F8AE491E00E94000334
S1130730C81307C0612F81E591E00E9462036D2F09
S113074004C08C1728F46C2F681B8AE491E004C061
S1130750682F6C1B81E591E0DF91CF911F910C9480
S113076062031F93CF93DF93182FD62F81E591E077
S11307700E940003C82F8AE491E00E940003C8137A
S113078007C0612F81E591E00E9478036D2F09C0B5
S11307908C1728F46C2F681B81E591E004C0682F46
S11307A06C1B8AE491E0DF91CF911F910C94780344
S11307B0CF9381E591E00E940003C82F8AE491E081
S11307C00E940003982F8C2FC91708F4892FCF910A
S11307D00895611102C0809349016091490181E546
S11307E091E00E945003609149018AE491E00C94E5
S11307F05003809149010895EF92FF920F931F9344
S1130800CF93DF930097B9F17C018AE491E00E94D1
S11308101303082F10E081E591E00E941303C82F11
S1130820D0E0F7FE0BC00115110529F00E0D1F1DB8
S113083017FF11C009C0CE19DF090DC0209749F078
S1130840CE19DF09D7FF07C0C0E0D0E000E010E018
S113085002C00E0D1F1D602F8AE491E00E94580310
S11308606C2F81E591E0DF91CF911F910F91FF9063
S1130870EF900C945803DF91CF911F910F91FF904B
S1130880EF90089581E591E00E941003811105C065
S11308900E94D803882339F014C08AE491E00E94AE
S11308A010038823A9F361E081E591E00E94060327
S11308B061E08AE491E00E94060365E085E00C941F
S11308C08A0364E184E10C94B10381E591E00E9420
S11308D01003811105C00E94D803882339F01AC07F
S11308E08AE491E00E9410038823A9F361E081E582
S11308F091E00E94060361E08AE491E00E9406030D
S113090065E081E591E00E94620365E08AE491E09C
S11309100C94780364E184E10C94B10381E591E0E3
S11309200E941003811105C00E94D803882339F066
S11309301AC08AE491E00E9410038823A9F361E0BD
S113094081E591E00E94060361E08AE491E00E945F
S1130950060365E081E591E00E94780365E08AE49E
S113096091E00C94620364E184E10C94B10381E5A9
S113097091E00E941003882329F00E94D803882361
S113098039F014C08AE491E00E9410038111F5CF7C
S113099060E081E591E00E94060360E08AE491E072
S11309A00E94060365E085E00C948A0364E184E117
S11309B00C94B10381E591E00E941003882329F08F
S11309C00E94D803882339F01AC08AE491E00E9477
S11309D010038111F5CF60E081E591E00E940603E8
S11309E060E08AE491E00E94060365E081E591E01D
S11309F00E94780365E08AE491E00C94620364E168
S1130A0084E10C94B10381E591E00E9410038823F2
S1130A1029F00E94D803882339F01AC08AE491E0AF
S1130A200E9410038111F5CF60E081E591E00E94FE
S1130A30060360E08AE491E00E94060365E081E534
S1130A4091E00E94620365E08AE491E00C947803EB
S1130A5064E184E10C94B10381E591E00E94100308
S1130A60811105C00E94D803882339F01AC08AE492
S1130A7091E00E9410038111F5CF61E081E591E0DE
S1130A800E94060360E08AE491E00E94060365E0A8
S1130A9081E591E00E94620365E08AE491E00C94B0
S1130AA0620364E184E10C94B10381E591E00E9466
S1130AB01003882329F00E94D803882339F01AC030
S1130AC08AE491E00E9410038823A9F360E081E5A1
S1130AD091E00E94060361E08AE491E00E9406032B
S1130AE065E081E591E00E94620365E08AE491E0BB
S1130AF00C94620364E184E10C94B1030F931F939B
S1130B00CF93DF93CDB7DEB762970FB6F894DEBF0D
S1130B100FBECDBF8C0164EA70E00E942F118AE4FD
S1130B2091E00E9400034AE0682FCE0101960E94E2
S1130B308F1081E591E00E9400034AE0682FCE0106
S1130B400D960E948F10BE01635F7F4FCE01079602
S1130B500E946F1062EA70E0CE0107960E94B01105
S1130B60BE016F5F7F4F0E949D11BC01C8010E94AE
S1130B706611CE0107960E94C90FCE010D960E9400
S1130B80C90FCE0101960E94C90FC80162960FB623
S1130B90F894DEBF0FBECDBFDF91CF911F910F91AF
S1130BA008950F931F93CF93DF93CDB7DEB762976A
S1130BB00FB6F894DEBF0FBECDBF8C0164E970E0C0
S1130BC00E942F118AE491E00E9416034AE0BC01BE
S1130BD0CE0101960E94BC1081E591E00E941603AB
S1130BE04AE0BC01CE010D960E94BC10BE01635FB9
S1130BF07F4FCE0107960E946F1062E970E0CE012C
S1130C0007960E94B011BE016F5F7F4F0E949D1135
S1130C10BC01C8010E946611CE0107960E94C90F4B
S1130C20CE010D960E94C90FCE0101960E94C90FF4
S1130C30C80162960FB6F894DEBF0FBECDBFDF9138
S1130C40CF911F910F9108950F931F93CF93DF932B
S1130C50CDB7DEB762970FB6F894DEBF0FBECDBF37
S1130C608C0164E870E00E942F118AE491E00E94F4
S1130C7003034AE0682FCE0101960E948F1081E59C
S1130C8091E00E9403034AE0682FCE010D960E9472
S1130C908F10BE01635F7F4FCE0107960E946F10D5
S1130CA062E870E0CE0107960E94B011BE016F5F4A
S1130CB07F4F0E949D11BC01C8010E946611CE01A4
S1130CC007960E94C90FCE010D960E94C90FCE014E
S1130CD001960E94C90FC80162960FB6F894DEBF50
S1130CE00FBECDBFDF91CF911F910F91089546E0C4
S1130CF067E081E591E00E942F0345E064E08AE427
S1130D0091E00C942F030F931F93CF93DF93EC0187
S1130D10EA85FB8590818C81892B8083EE81FF811C
S1130D2090818C8180958923808384E090E00E9467
S1130D304F0EEE81FF8190818C81892B80838AE024
S1130D4090E00E944F0EEE81FF8190818C8180950E
S1130D5089238083EA85FB8590818C818095892312
S1130D608083E885F98590818D81892311F080E065
S1130D7036C00E94EE0D2C853D85890120E030E0CF
S1130D800855194E2F4F3F4FDC01CB01800F911FA7
S1130D90A21FB31F8E879F87A88BB98BE885F9851F
S1130DA090818D81892361F40E94EE0D0E851F854B
S1130DB028893989061717072807390778F7D7CFFD
S1130DC00E94EE0D2C853D85DC01CB01820F931F23
S1130DD0A11DB11D8E879F87A88BB98B81E0DF9100
S1130DE0CF911F910F9108956F5F7F4F49E3469F05
S1130DF09001479F300D11242E384FE6340710F030
S1130E002DE83FE6FC01358724870895DC0170E076
S1130E10FB01EC5EFE4FE4911496EC93149750E0C2
S1130E20FA01EC5EFE4FE4911596EC931597685D1C
S1130E307E4FFB018491E82FF0E0EE0FFF1FEA5B89
S1130E40FE4F8591949117969C938E931697FA0171
S1130E50E85DFE4FE491F0E0EE0FFF1FE45CFE4F0F
S1130E608591949119969C938E931897FB016491A4
S1130E70E62FF0E0EE0FFF1FE05BFE4F85919491AB
S1130E801B969C938E931A97B901CD010C94F4068A
S1130E90E0E7F0E080818D7F808308958F929F92B8
S1130EA0AF92BF92CF92DF92EF92FF920F931F9374
S1130EB0CF93DF93EC010E94EE0D0E851F852889E8
S1130EC03989061717072807390728F50E944807A4
S1130ED00E94EE0D2C853D856901E12CF12C0E85D7
S1130EE01F852889398946015701801A910AA20A67
S1130EF0B30A950184010D50110921093109DC015E
S1130F00CB01800F911FA21FB31F88839983AA83EB
S1130F10BB8381E007C0E885F98590818D818923B1
S1130F20A9F280E0DF91CF911F910F91FF90EF9094
S1130F30DF90CF90BF90AF909F908F9008950E94C4
S1130F404807E6EBF0E080818F7D808382E0809328
S1130F50B00084E08093B1001092B2000895CF9362
S1130F60DF93EC0170935901609358010E949F072D
S1130F70CE01969587959695879501978F3F910514
S1130F8019F010F08FEF90E08093B300809170001F
S1130F90826080937000DF91CF9108950F931F9327
S1130FA0CF93DF93EC018B014115510519F0BA0180
S1130FB00E94F406CE010E948306882349F0B801FA
S1130FC088E190E0DF91CF911F910F910C94AF07CE
S1130FD0DF91CF911F910F9108951F920F920FB639
S1130FE00F9211242F933F934F935F936F937F93AB
S1130FF08F939F93AF93BF93EF93FF93E091580127
S1131000F09159010995FF91EF91BF91AF919F9193
S11310108F917F916F915F914F913F912F910F909D
S11310200FBE0F901F90189584E008958091610180
S11310308F5F843018F48093610102C010926101C3
S1131040E0916101F0E0E95FFE4F8081865F0895E1
S11310500F931F93CF93DF93CDB7DEB762970FB68D
S1131060F894DEBF0FBECDBF0E94E20D00915D017A
S113107010915E0120915F0130916001601771074A
S11310808207930708F4DBC080915A01813009F488
S11310905FC020F0823009F484C0C2C080915C013A
S11310A0882309F4CCC010925C0169E070E089E601
S11310B091E00E948F0A0E941608182F682F70E092
S11310C089E691E00E94D90A81E080935A010E9446
S11310D0E20DDC01CB01845D9E4FAF4FBF4F809387
S11310E05D0190935E01A0935F01B09360014AE0BB
S11310F0612FCE0101960E948F100E94E20DAB0178
S1131100BC012AE0CE010D960E94E810BE01635F87
S11311107F4FCE0107960E946F1065ED70E0CE01FF
S113112007960E94B011BE016F5F7F4F0E949D1110
S1131130BC0182E991E00E94860DCE0107960E94CF
S1131140C90FCE010D960E94C90FCE01019661C050
S113115089E691E00E94950A82E080935A010E94F8
S1131160E20DDC01CB014E96A11DB11D80935D0102
S113117090935E01A0935F01B09360010E94E20D21
S1131180AB01BC012AE0CE0107960E94E810BE0123
S1131190695F7F4FCE0101960E946F1062EC70E090
S11311A029C080915C018823B9F110925B011092EF
S11311B05A010E94E20DDC01CB014E96A11DB11D26
S11311C080935D0190935E01A0935F01B0936001F1
S11311D00E94E20DAB01BC012AE0CE0107960E94F9
S11311E0E810BE01695F7F4FCE0101960E946F1027
S11311F06EEA70E0CE0101960E94B011BC0182E952
S113120091E00E94860DCE0101960E94C90FCE0185
S113121007960E94C90F13C081E080935B010FC041
S11312200E94E20DDC01CB014E96A11DB11D8093FD
S11312305D0190935E01A0935F01B093600162969B
S11312400FB6F894DEBF0FBECDBFDF91CF911F91D3
S11312500F91089589E691E00E94F30986E691E0F2
S11312600C94F3091F920F920FB60F9211242F932F
S11312703F934F935F936F937F938F939F93AF931A
S1131280BF93EF93FF9380916D0187FF05C0109288
S11312908500109284001BC020916D01022E000C69
S11312A0330B80916C0190E02817390784F4809106
S11312B06D01082E000C990BFC01EE0FFF1F8E0F21
S11312C09F1FFC01E259FE4F808186FD15C080916D
S11312D06D018F5F80936D0120916D01022E000CD2
S11312E0330B80916C0190E028173907C4F4809186
S11312F06D018C3064F113C080916D01082E000CD7
S1131300990BFC01EE0FFF1F8E0F9F1FFC01E2598A
S1131310FE4F808160E08F730E94590FD8CF809177
S1131320840090918500049680349C4918F480E4EC
S11313309CE905C080918400909185000496909367
S11313408900809388008FEF80936D013BC02091CA
S113135084003091850080916D01082E000C990B5A
S1131360FC01EE0FFF1F8E0F9F1FFC01E259FE4F81
S113137081819281820F931F9093890080938800CA
S113138080916D01082E000C990BFC01EE0FFF1FDC
S11313908E0F9F1FFC01E259FE4F808186FF12C011
S11313A080916D01082E000C990BFC01EE0FFF1FBC
S11313B08E0F9F1FFC01E259FE4F808161E08F7305
S11313C00E94590FFF91EF91BF91AF919F918F911F
S11313D07F916F915F914F913F912F910F900FBE2D
S11313E00F901F901895FC0190916C019C30A0F413
S11313F081E0890F80936C019083892F90E0FC0138
S1131400EE0FFF1F8E0F9F1FFC01E259FE4F88EB6A
S11314109BE09283818308958FEF80830895DF9208
S1131420EF92FF920F931F93CF93DF93EC01D62E8D
S11314307A01890188818C3008F068C061E08D2DC3
S11314400E941D0F8881E82FF0E09F01220F331FB7
S1131450E20FF31FE259FE4F9D2D9F732081207CE4
S1131460D22ED92AD08220E232E02E193F0937FF4A
S113147002C02D5F3F4F35952795359527952983D4
S113148020E639E0201B310B37FF02C02D5F3F4FB0
S113149035952795359527952A832CE0622F0E9450
S11314A0CF11289FB001112440E050E09B01240F8C
S11314B0351FF901EE0FFF1F2E0F3F1FF901E259EF
S11314C0FE4F908196FD16C04F5F5F4F4C30510523
S11314D069F781110FC01092800082E0809381002F
S11314E01092850010928400B19A80916F008260FE
S11314F080936F00E881F0E0CF01880F991FE80F17
S1131500F91FE259FE4F8081806480838881DF91D6
S1131510CF911F910F91FF90EF90DF90089520E6F7
S113152039E040E252E00C940F0ADC01EC91F0E067
S1131530CF01880F991FE80FF91FE259FE4F8081F0
S11315408F7B80830895FC0190819C3088F5818194
S113155028E830E0281B310987FD3395220F331F1B
S1131560220F331F6217730784F0828148E552E02B
S1131570481B510987FD5395440F551F440F551FB0
S11315809B01461757070CF49A0122503109220F88
S1131590331F4FB7F894892F90E0FC01EE0FFF1F23
S11315A08E0F9F1FFC01E259FE4F328321834FBFF0
S11315B00895AF92BF92CF92DF92EF92FF920F9372
S11315C01F93CF93DF93EC01603282E078070CF035
S11315D03FC077FD06C0653B71052CF064EB70E0FD
S11315E002C060E070E0898128E830E05901A81A5F
S11315F0B10887FDB394AA0CBB1CAA0CBB1C0B2C12
S1131600000CCC08DD08072E000C880B990B2A81EE
S113161008E512E0021B110927FD1395000F111FA5
S1131620000F111F012E000C220B330B3F932F933D
S11316301F930F9314EBE12EF12C00E010E020E057
S113164030E0A9010E94880F0F900F900F900F9027
S1131650CE01DF91CF911F910F91FF90EF90DF901A
S1131660CF90BF90AF900C94A30AFC01918D228D72
S1131670892F90E0805C9F4F821B91098F7399277B
S11316800895FC01918D828D981731F0828DE80FB9
S1131690F11D858D90E008958FEF9FEF0895FC0173
S11316A0918D828D981761F0828DDF01A80FB11D95
S11316B05D968C91928D9F5F9F73928F90E00895B9
S11316C08FEF9FEF089588EB9CE0892B49F080E031
S11316D090E0892B29F00E94B80C81110C94000031
S11316E00895FC01848DDF01A80FB11DA35ABF4FDB
S11316F02C91848D90E001968F739927848FA6890D
S1131700B7892C93A089B1898C9180648C93938D33
S1131710848D981306C00288F389E02D80818F7D23
S113172080830895EF92FF920F931F93CF93DF93DB
S1131730EC0181E0888F9B8D8C8D981305C0E8891E
S1131740F989808185FD24C0F62E0B8D10E00F5F92
S11317501F4F0F731127E02E8C8DE8120CC00FB6AB
S113176007FCFACFE889F989808185FFF5CFCE019E
S11317700E94710BF1CF8B8DFE01E80FF11DE35A2E
S1131780FF4FF0820B8FEA89FB898081806207C05A
S1131790EE89FF896083E889F98980818064808388
S11317A081E090E0DF91CF911F910F91FF90EF9036
S11317B00895CF93DF93EC01888D8823C9F0EA89DB
S11317C0FB89808185FD05C0A889B9898C9186FD36
S11317D00FC00FB607FCF5CF808185FFF2CFA88933
S11317E0B9898C9185FFEDCFCE010E94710BE7CFB3
S11317F0DF91CF910895CF92DF92EF92FF921F93E2
S1131800CF93DF93EC016A017B01122FE889F989F8
S113181082E080834115514E61057105B1F060E0AD
S113182079E08DE390E0A70196010E940312DA01AA
S1131830C9010197A109B109B695A795979587950F
S11318409C01211580E13807A8F0E889F989108204
S113185060E874E88EE190E0A70196010E9403120B
S1131860DA01C9010197A109B109B695A795979520
S113187087959C01EC85FD853083EE85FF8520836B
S1131880188EEC89FD891083EA89FB898081806147
S11318908083EA89FB89808188608083EA89FB8967
S11318A0808180688083EA89FB8980818F7D808341
S11318B0DF91CF911F91FF90EF90DF90CF9008952B
S11318C01F920F920FB60F9211242F938F939F9311
S11318D0EF93FF93E091A201F091A3018081E09145
S11318E0A801F091A90182FD12C090818091AB0101
S11318F08F5F8F732091AC01821751F0E091AB019F
S1131900F0E0EE56FE4F958F8093AB0101C08081CD
S1131910FF91EF919F918F912F910F900FBE0F9098
S11319201F9018951F920F920FB60F9211242F93A8
S11319303F934F935F936F937F938F939F93AF9353
S1131940BF93EF93FF9382E991E00E94710BFF91A3
S1131950EF91BF91AF919F918F917F916F915F9123
S11319604F913F912F910F900FBE0F901F9018959C
S113197082E991E00E94350B21E0892B09F420E0F3
S1131980822F0895E2E9F1E01382128288EE93E057
S1131990A0E0B0E084839583A683B7838FE091E0D1
S11319A09183808385EC90E09587848784EC90E034
S11319B09787868780EC90E0918B808B81EC90E018
S11319C0938B828B82EC90E0958B848B86EC90E0F9
S11319D0978B868B118E128E138E148E0895089514
S11319E00E945A0E0E94EF0C0E943A01C3E6DBE00B
S11319F00E94F8022097E1F30E94630BF9CFCF9283
S1131A00DF92EF92FF920F931F93CF93DF936C01BA
S1131A107A018B01C0E0D0E0CE15DF0581F0D8015A
S1131A206D918D01D601ED91FC910190F081E02D35
S1131A30C6010995892B11F02196EECF7E01C701CD
S1131A40DF91CF911F910F91FF90EF90DF90CF9096
S1131A5008956115710579F0FB0101900020E9F703
S1131A603197AF01461B570BDC01ED91FC910280CD
S1131A70F381E02D099480E090E00895EF92FF92C5
S1131A800F931F93CF93DF938C017B01C0E0D0E0D1
S1131A90F701EC0FFD1F6491662361F0D801ED910D
S1131AA0FC910190F081E02DC8010995892B11F07A
S1131AB02196EECFCE01DF91CF911F910F91FF9030
S1131AC0EF900895DB0114964D915C9115976D91FB
S1131AD07C91DC01ED91FC910280F381E02D09946D
S1131AE06BE171E00C94290D0F931F93CF93DF9357
S1131AF0EC010E943E0D8C01CE010E94700D800FFE
S1131B00911FDF91CF911F910F9108950F931F9310
S1131B10CF93DF93EC010E94620D8C01CE010E94F1
S1131B20700D800F911FDF91CF911F910F91089538
S1131B301F920F920FB60F9211242F933F938F93FE
S1131B409F93AF93BF938091300290913102A09103
S1131B503202B091330230912F0223E0230F2D374C
S1131B6020F40196A11DB11D05C026E8230F02969D
S1131B70A11DB11D20932F02809330029093310256
S1131B80A0933202B09333028091340290913502D3
S1131B90A0913602B09137020196A11DB11D809328
S1131BA0340290933502A0933602B0933702BF916A
S1131BB0AF919F918F913F912F910F900FBE0F90F6
S1131BC01F9018952FB7F8946091300270913102EC
S1131BD080913202909133022FBF08953FB7F89459
S1131BE08091340290913502A0913602B09137026F
S1131BF026B5A89B05C02F3F19F00196A11DB11D64
S1131C003FBFBA2FA92F982F8827820F911DA11D9E
S1131C10B11DBC01CD0142E0660F771F881F991FDB
S1131C204A95D1F708958F929F92AF92BF92CF9227
S1131C30DF92EF92FF926B017C010E94EE0D4B014B
S1131C405C01C114D104E104F10401F10E94BE114C
S1131C500E94EE0DDC01CB0188199909AA09BB0980
S1131C60883E9340A105B10560F321E0C21AD10872
S1131C70E108F10888EE880E83E0981EA11CB11CCF
S1131C80C114D104E104F10419F7DBCFFF90EF9004
S1131C90DF90CF90BF90AF909F908F900895823047
S1131CA0910538F0880F991F880F991F05970197A0
S1131CB0F1F70895789484B5826084BD84B5816019
S1131CC084BD85B5826085BD85B5816085BDEEE640
S1131CD0F0E0808181608083E1E8F0E0108280811F
S1131CE082608083808181608083E0E8F0E080818D
S1131CF081608083E1EBF0E0808184608083E0EBAD
S1131D00F0E0808181608083EAE7F0E08081846094
S1131D1080838081826080838081816080838081F0
S1131D20806880831092C10008951F93CF93DF933E
S1131D30182FEB0161E00E941D0F209711F460E061
S1131D4004C0CF3FD10539F461E0812FDF91CF91F9
S1131D501F910C94590FE12FF0E0E050FF4FE491F4
S1131D60E330F9F048F4E130B9F0E230A1F584B59C
S1131D70806284BDC8BD34C0E730E9F0E83019F1B1
S1131D80E43049F580918000806280938000D09394
S1131D908B00C0938A0024C084B5806884BDC7BD0D
S1131DA01FC080918000806880938000D093890058
S1131DB0C093880015C08091B00080688093B00003
S1131DC0C093B3000DC08091B00080628093B000D6
S1131DD0C093B40005C0C038D1050CF0B5CFAFCF67
S1131DE0DF91CF911F910895833081F028F48130E1
S1131DF099F08230A1F008958730A9F08830B9F0C5
S1131E008430D1F4809180008F7D03C08091800064
S1131E108F7780938000089584B58F7702C084B54E
S1131E208F7D84BD08958091B0008F7703C0809129
S1131E30B0008F7D8093B0000895CF93DF9390E03E
S1131E40FC01EC5EFE4F2491FC01E85DFE4F8491A1
S1131E50882361F190E0880F991FFC01E05BFE4F3D
S1131E60C591D491FC01EA5BFE4FA591B491611137
S1131E7009C09FB7F8948881209582238883EC91C8
S1131E802E230BC0623061F49FB7F8948881322FFF
S1131E90309583238883EC912E2B2C939FBF06C00F
S1131EA08FB7F894E8812E2B28838FBFDF91CF91D1
S1131EB008951F93CF93DF93282F30E0F901E0506A
S1131EC0FF4F8491F901EC5EFE4FD491F901E85D76
S1131ED0FE4FC491CC23C1F0162F81110E94F40E41
S1131EE0EC2FF0E0EE0FFF1FEA5BFE4FA591B491DB
S1131EF09FB7F894111104C08C91D095D82302C0D7
S1131F00EC91DE2BDC939FBFDF91CF911F9108955D
S1131F104F925F926F927F92AF92BF92CF92DF9275
S1131F20EF92FF920F931F93CF93DF93CDB7DEB75A
S1131F3029013A019B01AC012419350946095709C5
S1131F4089899A89AB89BC89BC01CD016A197B094D
S1131F508C099D090E94BF11A80197012419350914
S1131F60460957090E942512CA01B9016A0D7B1D51
S1131F708C1D9D1DDF91CF911F910F91FF90EF90CC
S1131F80DF90CF90BF90AF907F906F905F904F9015
S1131F900895FC01808191810C94FC12CF93DF930E
S1131FA0EC0188819981009711F00E94FC1219823A
S1131FB018821D821C821B821A82DF91CF910895A0
S1131FC00F931F93CF93DF93EC018B016F5F7F4FD0
S1131FD0888199810E948513009731F099838883C1
S1131FE01B830A8381E001C080E0DF91CF911F91C0
S1131FF00F910895CF93DF93EC0188819981892B08
S113200029F08A819B818617970760F4CE010E948C
S1132010E00F882341F08C819D81892B19F4E8819C
S1132020F981108281E0DF91CF910895EF92FF92C0
S11320300F931F93CF93DF93EC017B018A01BA01C5
S11320400E94FA0F811104C0CE010E94CE0F07C076
S11320501D830C83B701888199810E946414CE0189
S1132060DF91CF911F910F91FF90EF900895EF9220
S1132070FF920F931F93CF93DF93EC017B018A01AF
S1132080BA010E94FA0F811104C0CE010E94CE0F42
S113209007C01D830C83B701888199810E944B146A
S11320A0CE01DF91CF911F910F91FF90EF90089592
S11320B0CF93DF93EC01FB018617970761F06081F2
S11320C071816115710529F0448155810E941610B2
S11320D002C00E94CE0FCE01DF91CF910895FC0182
S11320E01182108213821282158214820C94581069
S11320F0CF93DF93EC016115710559F0FB01019059
S11321000020E9F73197AF01461B570B0E941610C8
S113211002C00E94CE0FCE01DF91CF9108950F939C
S11321201F93CF93DF93CDB7DEB729970FB6F894FB
S1132130DEBF0FBECDBF8C01862FF8011182108245
S1132140138212821582148250E0BE016F5F7F4FAA
S113215090E00E94AE14BE016F5F7F4FC8010E94E1
S1132160781029960FB6F894DEBF0FBECDBFDF916D
S1132170CF911F910F9108950F931F93CF93DF93E6
S1132180CDB7DEB762970FB6F894DEBF0FBECDBFF2
S11321908C01CB01F8011182108213821282158204
S11321A0148250E0BE016F5F7F4F0E946B14BE012A
S11321B06F5F7F4FC8010E94781062960FB6F89443
S11321C0DEBF0FBECDBFDF91CF911F910F91089558
S11321D00F931F93CF93DF93CDB7DEB7A1970FB6BD
S11321E0F894DEBF0FBECDBF8C01CB01BA01F8015C
S11321F011821082138212821582148230E0AE01A1
S11322004F5F5F4F0E948114BE016F5F7F4FC80113
S11322100E947810A1960FB6F894DEBF0FBECDBF12
S1132220DF91CF911F910F9108950F931F93CF9337
S1132230DF93EC018B016115710549F0CB010E941C
S11322405214AC01B801CE010E94371002C00E94A2
S1132250CE0FCE01DF91CF911F910F910895FC0114
S11322601182108213821282158214820C94151129
S1132270EF92FF920F931F93CF93DF936115710534
S113228011F480E01CC041155105C1F07B01EC0143
S11322908C819D818A01080F191FB801CE010E940B
S11322A0FA0F882371F3288139818C819D81B701CC
S11322B0820F931F0E9464141D830C8381E0DF91BD
S11322C0CF911F910F91FF90EF900895FB014481EE
S11322D05581608171810C943811EF92FF920F93B4
S11322E01F93CF93DF936115710511F480E01EC035
S11322F08B01EC01CB010E9452140097B1F02C81A8
S11323003D817C01E20EF31EB701CE010E94FA0F5B
S1132310882361F3288139818C819D81B801820FE2
S1132320931F0E944B14FD82EC8281E0DF91CF91D8
S11323301F910F91FF90EF900895CF93DF93EC01DD
S1132340FB0144815581608171810E9438118111A2
S113235003C0CE010E94CE0FCE01DF91CF9108952C
S1132360CF93DF93EC010E946D11811103C0CE0164
S11323700E94CE0FCE01DF91CF9108950895DB0125
S11323808F939F930E944412BF91AF91A29F800D9F
S1132390911DA39F900DB29F900D11240895991B38
S11323A079E004C0991F961708F0961B881F7A9548
S11323B0C9F780950895AA1BBB1B51E107C0AA1F4A
S11323C0BB1FA617B70710F0A61BB70B881F991FD2
S11323D05A95A9F780959095BC01CD01089597FB76
S11323E0072E16F4009407D077FD09D00E94DB1164
S11323F007FC05D03EF4909581959F4F0895709504
S113240061957F4F0895A1E21A2EAA1BBB1BFD0103
S11324100DC0AA1FBB1FEE1FFF1FA217B307E407BF
S1132420F50720F0A21BB30BE40BF50B661F771F17
S1132430881F991F1A9469F76095709580959095F7
S11324409B01AC01BD01CF010895052E97FB1EF43D
S113245000940E943C1257FD07D00E94031207FC0F
S113246003D04EF40C943C12509540953095219530
S11324703F4F4F4F5F4F08959095809570956195AC
S11324807F4F8F4F9F4F08950E945512A59F900D27
S1132490B49F900DA49F800D911D11240895EE0FFB
S11324A0FF1F0590F491E02D0994A29FB001B39F02
S11324B0C001A39F700D811D1124911DB29F700D49
S11324C0811D1124911D08950F931F93CF93DF93C2
S11324D08230910510F482E090E0E0913A02F091AC
S11324E03B0220E030E0A0E0B0E0309719F14081F9
S11324F051810281138148175907C8F08417950741
S113250069F4109731F012960C93129713961C935A
S113251027C000933A0210933B0222C021153105D3
S113252019F04217530718F49A01BD01EF01DF01B6
S1132530F801DBCF21153105F9F0281B390B2430C4
S1132540310580F48A819B816115710521F0FB01BD
S11325509383828304C090933B0280933A02FE01EA
S1132560329644C0FE01E20FF31F819391932250EF
S11325703109398328833AC02091380230913902D5
S1132580232B41F42091020130910301309339024D
S11325902093380220910001309101012115310569
S11325A041F42DB73EB74091040150910501241B1D
S11325B0350BE0913802F0913902E217F307A0F4E9
S11325C02E1B3F0B2817390778F0AC014E5F5F4F85
S11325D02417350748F04E0F5F1F5093390240937C
S11325E038028193919302C0E0E0F0E0CF01DF91E3
S11325F0CF911F910F910895CF93DF93009709F422
S113260081C0FC01329713821282A0913A02B091E8
S11326103B02109781F420813181820F931F209116
S11326203802309139022817390751F5F0933902ED
S1132630E093380267C0ED0120E030E0CE17DF07F9
S113264040F44A815B819E0141155105F1F0EA0194
S1132650F5CFD383C28340815181840F951FC8175E
S1132660D90759F488819981840F951F0296918323
S113267080838A819B81938382832115310529F488
S1132680F0933B02E0933A023DC0E901FB83EA8305
S113269049915991C40FD51FEC17FD0761F480814E
S11326A09181840F951F0296E90199838883828121
S11326B093819B838A83E0E0F0E012968D919C9154
S11326C01397009719F0FD01DC01F7CF8D919C91D0
S11326D011979D012E5F3F4F820F931F2091380267
S11326E0309139022817390769F4309729F4109288
S11326F03B0210923A0202C013821282B093390252
S1132700A0933802DF91CF910895A0E0B0E0EBE808
S1132710F3E10C94E714EC01009721F4CB010E943F
S11327206412B4C0FC01E60FF71F9C01225031096A
S1132730E217F30708F4A8C0D9010D911C91119771
S113274006171707B0F00530110508F49BC0C8013F
S113275004978617970708F495C002501109061BC1
S1132760170B019311936D937C93CF010E94FC127C
S113277089C05B01A01AB10A4C01800E911EA09180
S11327803A02B0913B02612C712CE12CF12C109790
S113279009F446C08D919C911197A815B905B1F51E
S11327A06C0142E0C40ED11CCA14DB0478F14C0164
S11327B08A189B08640142E0C40ED11C1296BC9096
S11327C012971396AC91B5E0CB16D10440F0B282C7
S11327D0A38391828082D9016D937C9309C00E5F9B
S11327E01F4F800F911FF90191838083EB2DFA2FE6
S11327F0E114F10431F0D7011396FC93EE93129790
S113280041C0F0933B02E0933A023CC0681679065B
S113281008F43C017D0112960D90BC91A02DB7CF18
S1132820809138029091390288169906E1F466166F
S11328307706C8F48091000190910101009741F45A
S11328408DB79EB74091040150910501841B950BEF
S1132850E817F907C8F4F0933902E0933802F90154
S1132860718360830FC0CB010E9464127C010097C6
S113287059F0A801BE010E945B14CE010E94FC1213
S1132880C70104C0CE0102C080E090E0CDB7DEB73E
S1132890EEE00C940315FB01DC0105900D92002081
S11328A0E1F70895FC0105900020E9F780959095E3
S11328B08E0F9F1F0895FB01DC0102C001900D9251
S11328C041505040D8F70895FB01DC0101900D926E
S11328D00020E1F708954532510520F4423010F00C
S11328E00C947614FB011082CB010895BB274A3067
S11328F031F4992322F4BDE2909581959F4F0C9475
S1132900BA142532310520F4223010F00C948C14C2
S1132910FA011082CA010895BB27FA01A62F621793
S1132920710581059105330B30FB66F0AA27660F0C
S1132930771F881F991FAA1FA21710F0A21B639567
S11329403850A9F7A05DAA3308F0A95DA19336F722
S1132950B111B1931082CA010C94D31445325105BC
S113296020F4423010F00C94B914FB011082CB0116
S11329700895BB27FB015527AA27880F991FAA1F73
S1132980A41710F0A41B83955051B9F7A05DAA3386
S113299008F0A95DA193009779F7B111B193119251
S11329A0CB010C94D314DC01FC01672F71917723C4
S11329B0E1F7329704C07C916D9370836291AE17F6
S11329C0BF07C8F308952F923F924F925F926F9280
S11329D07F928F929F92AF92BF92CF92DF92EF92AB
S11329E0FF920F931F93CF93DF93CDB7DEB7CA1B2C
S11329F0DB0B0FB6F894DEBF0FBECDBF09942A8857
S1132A00398848885F846E847D848C849B84AA84FE
S1132A10B984C884DF80EE80FD800C811B81AA818B
S1132A20B981CE0FD11D0FB6F894DEBF0FBECDBF56
S10B2A30ED010895F894FFCFB5
S1132A3800003C022000015A875A2D000000009231
S1132A480BFF0C350B4F0B410BD90B0D0A006E61B4
S10F2A586E00696E66006F7666002E004A
S9030000FC
