:100000000C94B1000C94D9000C94D9000C94D90034
:100010000C94D9000C94D9000C94D9000C940A07C4
:100020000C94D9000C94D9000C94D9000C941D099F
:100030000C94D9000C94D9000C94D9000C94D900DC
:100040000C94850D0C94D9000C944C0C0C947E0CE3
:100050000C94D9000C94D9000C94D9000C94D900BC
:100060000C94D9000C94D900636D00536F6E6172CB
:100070002064697374616E63653A20002000204D2E
:100080006178205370656564733A20002000205227
:1000900065616C5370656564733A200020002053DD
:1000A00070656564733A200053746172740053453F
:1000B00052564F5F50484153455F57414954494E4E
:1000C0004700534552564F5F50484153455F535484
:1000D0004F50454400534552564F5F504841534599
:1000E0005F474554494E475F414E474C452E204E91
:1000F00065787420706F736974696F6E203D20009D
:1001000000000008000201000003040700000000D6
:1001100000000000010204081020408001020408D1
:100120001020010204081020040404040404040440
:1001300002020202020203030303030300000000A1
:1001400023002600290000000000250028002B00C5
:1001500000000000240027002A002C02A705150932
:10016000AE0C11241FBECFEFD8E0DEBFCDBF11E033
:10017000A0E0B1E0E2E4FAE202C005900D92AC32F8
:10018000B107D9F722E0ACE2B1E001C01D92AC3377
:10019000B207E1F710E0C1EBD0E004C02197FE0107
:1001A0000E944412CD3AD107C9F70E94DC0C0C948E
:1001B0001F150C9400000F931F93CF93DF93CDB7BF
:1001C000DEB72C970FB6F894DEBF0FBECDBF86E327
:1001D00091E00E947F06882309F441C000916101EB
:1001E00010E00E591E4F60913601709137018091D9
:1001F00038019091390129E330E040E050E00E945D
:10020000F811F801208381E080935C016BE670E0D7
:1002100082E991E00E942B0D6091300170913101D3
:100220004AE0CE0101960E94AA10BE016F5F7F4F87
:10023000CE0107960E945D1068E670E0CE01079639
:100240000E94A511BC0182E991E00E94730DCE01CC
:1002500007960E94B70FCE0101960E94B70F2C9609
:100260000FB6F894DEBF0FBECDBFDF91CF911F91C7
:100270000F9108950E94310761E08DE00E940A0FFE
:1002800061E08EE00E940A0F61E08EE00E94460F5E
:100290008DEF9FEF0E942C036AE070E086E691E00C
:1002A0000E947C0A6CE370E086E691E00E94C50A39
:1002B00068EC70E080E090E00E94000E86E691E03D
:1002C0000E94820A0E94CF0D609332017093330125
:1002D00080933401909335010E94CF0D60935D01AE
:1002E00070935E0180935F01909360010E94CF0D37
:1002F00060932C0170932D0180932E0190932F0118
:1003000008950F931F93CF930E94CF0D00912C015E
:1003100010912D0120912E0130912F01601771074E
:100320008207930708F455C0D901C801C296A11DE0
:10033000B11D80932C0190932D01A0932E01B093B9
:100340002F0188EC90E09093310180933001C0E060
:100350000E94FF07C81798F4EC2FF0E0EE59FE4F0B
:10036000808190E020913001309131018217930714
:1003700024F49093310180933001CF5FE9CF8091D5
:100380003001909131018436910524F00E942903B7
:1003900060E01AC08091300190913101C2973CF425
:1003A0000E942903873918F061E086E90DC0809129
:1003B000300190913101843691055CF40E9429034B
:1003C000863C38F061E085ECCF911F910F910C9441
:1003D0001903CF911F910F910895CF92DF92EF9261
:1003E000FF920E94CF0DC0903201D0903301E09077
:1003F0003401F09035016C157D058E059F05F8F0F0
:1004000020915B012223D9F0D701C601C296A11D1C
:10041000B11D8093320190933301A0933401B093C6
:10042000350110925C0140E050E06BED70E086E336
:1004300091E0FF90EF90DF90CF900C94EB06FF904F
:10044000EF90DF90CF9008950E947D070E94ED010C
:100450000E9413080C94810128EC30E04FE060E129
:1004600086E391E00C943606FC0182810895FC013C
:1004700085810895FC016683662311F061E001C067
:1004800060E080810C94460FFC0186810895FC0198
:1004900083810895FC012281222331F0838194819C
:1004A0009927820F911D089580E090E00895CF93E1
:1004B000DF93EC016A830E944A02BC018981DF91CB
:1004C000CF910C94820E1F93CF93DF93EC01862F74
:1004D0001A821C821B8295EF9D8311E01E83688324
:1004E000498361E00E940A0F61E089810E940A0F3E
:1004F0001E8361E088810E94460F60E0CE01DF919B
:10050000CF911F910C945702FC01658322816217E1
:1005100010F40C94570208956B3008F06AE070E014
:10052000FC017483638362810C945702FC01928105
:10053000911102C066E90AC0462F50E0490F511DD3
:10054000258130E02417350724F0690FCF010C9482
:1005500057020895FC014281442369F0242F30E0C2
:10056000261B31092639310514F460E002C0461B10
:10057000642F0C94570208951F93CF93DF93182F85
:10058000D62F80E591E00E943402C82F89E491E0E3
:100590000E943402C81307C0612F80E591E00E94D9
:1005A00096026D2F04C08C1728F46C2F681B89E409
:1005B00091E004C0682F6C1B80E591E0DF91CF9142
:1005C0001F910C9496021F93CF93DF93182FD62F71
:1005D00080E591E00E943402C82F89E491E00E94F6
:1005E0003402C81307C0612F80E591E00E94AA027F
:1005F0006D2F09C08C1728F46C2F681B80E591E0E3
:1006000004C0682F6C1B89E491E0DF91CF911F91AA
:100610000C94AA02CF9380E591E00E943402C82F87
:1006200089E491E00E9434028C1708F48C2FCF915A
:100630000895611102C0809348016091480180E5EE
:1006400091E00E9484026091480189E491E00C9459
:100650008402809148010895EF92FF920F931F93B7
:10066000CF93DF930097B9F17C0189E491E00E9478
:100670004702082F10E080E591E00E944702C82F52
:10068000D0E0F7FE0BC00115110529F00E0D1F1D5E
:1006900017FF11C009C0CE19DF090DC0209749F01E
:1006A000CE19DF09D7FF07C0C0E0D0E000E010E0BE
:1006B00002C00E0D1F1D602F89E491E00E948C0284
:1006C0006C2F80E591E0DF91CF911F910F91FF900A
:1006D000EF900C948C02DF91CF911F910F91FF90BE
:1006E000EF90089580E591E00E944402811105C0D9
:1006F0000E940A03882339F014C089E491E00E9423
:1007000044028823A9F361E080E591E00E943A0267
:1007100061E089E491E00E943A0265E085E00C9492
:10072000BC0264E184E10C94E30280E591E00E9464
:100730004402811105C00E940A03882339F01AC0BF
:1007400089E491E00E9444028823A9F361E080E5F6
:1007500091E00E943A0261E089E491E00E943A024D
:1007600065E080E591E00E94960265E089E491E011
:100770000C94AA0264E184E10C94E30280E591E028
:100780000E944402811105C00E940A03882339F0A7
:100790001AC089E491E00E9444028823A9F361E031
:1007A00080E591E00E943A0261E089E491E00E94D4
:1007B0003A0265E080E591E00E94AA0265E089E4E2
:1007C00091E00C94960264E184E10C94E30280E5EC
:1007D00091E00E944402882329F00E940A038823A2
:1007E00039F014C089E491E00E9444028111F5CFF0
:1007F00060E080E591E00E943A0260E089E491E0E7
:100800000E943A0265E085E00C94BC0264E184E158
:100810000C94E30280E591E00E944402882329F0D1
:100820000E940A03882339F01AC089E491E00E94EB
:1008300044028111F5CF60E080E591E00E943A0228
:1008400060E089E491E00E943A0265E080E591E091
:100850000E94AA0265E089E491E00C94960264E1AA
:1008600084E10C94E30280E591E00E944402882335
:1008700029F00E940A03882339F01AC089E491E024
:100880000E9444028111F5CF60E080E591E00E9472
:100890003A0260E089E491E00E943A0265E080E576
:1008A00091E00E94960265E089E491E00C94AA022E
:1008B00064E184E10C94E30280E591E00E9444024B
:1008C000811105C00E940A03882339F01AC089E407
:1008D00091E00E9444028111F5CF61E080E591E052
:1008E0000E943A0260E089E491E00E943A0265E0E9
:1008F00080E591E00E94960265E089E491E00C9425
:10090000960264E184E10C94E30280E591E00E94A8
:100910004402882329F00E940A03882339F01AC070
:1009200089E491E00E9444028823A9F360E080E515
:1009300091E00E943A0261E089E491E00E943A026B
:1009400065E080E591E00E94960265E089E491E02F
:100950000C94960264E184E10C94E3020F931F93DC
:10096000CF93DF93CDB7DEB762970FB6F894DEBFB3
:100970000FBECDBF8C016EE970E00E94241189E4A6
:1009800091E00E9434024AE0682FCE0101960E9455
:100990007D1080E591E00E9434024AE0682FCE018C
:1009A0000D960E947D10BE01635F7F4FCE010796BA
:1009B0000E945D106CE970E0CE0107960E94A511BF
:1009C000BE016F5F7F4F0E949211BC01C8010E945F
:1009D0005B11CE0107960E94B70FCE010D960E94C3
:1009E000B70FCE0101960E94B70FC80162960FB6ED
:1009F000F894DEBF0FBECDBFDF91CF911F910F9155
:100A000008950F931F93CF93DF93CDB7DEB762970F
:100A10000FB6F894DEBF0FBECDBF8C016EE870E05C
:100A20000E94241189E491E00E944A024AE0BC013C
:100A3000CE0101960E94AA1080E591E00E944A0230
:100A40004AE0BC01CE010D960E94AA10BE01635F70
:100A50007F4FCE0107960E945D106CE870E0CE01DA
:100A600007960E94A511BE016F5F7F4F0E949211F1
:100A7000BC01C8010E945B11CE0107960E94B70F0E
:100A8000CE010D960E94B70FCE0101960E94B70FBE
:100A9000C80162960FB6F894DEBF0FBECDBFDF91DE
:100AA000CF911F910F9108950F931F93CF93DF93D1
:100AB000CDB7DEB762970FB6F894DEBF0FBECDBFDD
:100AC0008C016EE770E00E94241189E491E00E949D
:100AD00037024AE0682FCE0101960E947D1080E522
:100AE00091E00E9437024AE0682FCE010D960E94E5
:100AF0007D10BE01635F7F4FCE0107960E945D109F
:100B00006CE770E0CE0107960E94A511BE016F5FF1
:100B10007F4F0E949211BC01C8010E945B11CE015F
:100B200007960E94B70FCE010D960E94B70FCE0117
:100B300001960E94B70FC80162960FB6F894DEBF07
:100B40000FBECDBFDF91CF911F910F91089546E069
:100B500067E080E591E00E94630245E064E089E49B
:100B600091E00C9463020F931F93CF93DF93EC01FA
:100B7000EA85FB8590818C81892B8083EE81FF81C2
:100B800090818C8180958923808384E090E00E940D
:100B90003C0EEE81FF8190818C81892B80838AE0DD
:100BA00090E00E943C0EEE81FF8190818C818095C7
:100BB00089238083EA85FB8590818C8180958923B8
:100BC0008083E885F98590818D81892311F080E00B
:100BD00036C00E94DB0D2C853D85890120E030E088
:100BE0000855194E2F4F3F4FDC01CB01800F911F4D
:100BF000A21FB31F8E879F87A88BB98BE885F985C5
:100C000090818D81892361F40E94DB0D0E851F8503
:100C100028893989061717072807390778F7D7CFA2
:100C20000E94DB0D2C853D85DC01CB01820F931FDB
:100C3000A11DB11D8E879F87A88BB98B81E0DF91A5
:100C4000CF911F910F9108956F5F7F4F49E3469FAA
:100C50009001479F300D11242E384FE6340710F0D5
:100C60002DE83FE6FC01358724870895DC0170E01C
:100C7000FB01EC5EFE4FE4911496EC93149750E068
:100C8000FA01EC5EFE4FE4911596EC931597685DC2
:100C90007E4FFB018491E82FF0E0EE0FFF1FEA5B2F
:100CA000FE4F8591949117969C938E931697FA0117
:100CB000E85DFE4F449150E0440F551F445C5E4F89
:100CC000FA018591949119969C938E931897FB0144
:100CD0006491E62FF0E0EE0FFF1FE05BFE4F859181
:100CE00094911B969C938E931A97B901CD010C9405
:100CF0002406E0E7F0E080818D7F808308950F93E4
:100D00001F93CF93DF93EC010E94DB0D0E851F85AF
:100D100028893989061717072807390708F50E9417
:100D200079060E94DB0D8B019C018C859D85AC01B1
:100D300060E070E08E859F85A889B989481B590BB2
:100D40006A0B7B0B4D50510961097109400F511F0E
:100D5000621F731F488359836A837B8381E007C0C6
:100D6000E885F98590818D818923C9F280E0DF9142
:100D7000CF911F910F9108950E947906E6EBF0E064
:100D800080818F7D808382E08093B00084E08093B7
:100D9000B1001092B2000895CF93DF93EC017093ED
:100DA0005801609357010E94BC06CE019695879525
:100DB0009695879501978F3F910519F010F08FEF69
:100DC00090E08093B3008091700082608093700007
:100DD000DF91CF9108950F931F93CF93DF93EC0191
:100DE0008B014115510519F0BA010E942406CE016C
:100DF0000E94B305882349F0B80188E190E0DF91B3
:100E0000CF911F910F910C94CC06DF91CF911F9140
:100E10000F9108951F920F920FB60F9211242F93E6
:100E20003F934F935F936F937F938F939F93AF9372
:100E3000BF93EF93FF93E0915701F091580109950B
:100E4000FF91EF91BF91AF919F918F917F916F91A2
:100E50005F914F913F912F910F900FBE0F901F9078
:100E6000189526E040E052EC61E070E082E991E004
:100E70000E94E70B68EA70E082E991E00C94610D52
:100E8000CF93DF9300D000D000D0CDB7DEB7CE0136
:100E900001960E94AE04BE016F5F7F4F82E991E030
:100EA0000E94730DCE0101960E94B70FCE010196EC
:100EB0000E940105BE016F5F7F4F82E991E00E94B1
:100EC000730DCE0101960E94B70FCE0101960E94CC
:100ED0005405BE016F5F7F4F82E991E00E94730D60
:100EE000CE0101960E94B70F26960FB6F894DEBF8A
:100EF0000FBECDBFDF91CF910895CF9382E991E0EE
:100F00000E94210B181619060CF077C082E991E0B7
:100F10000E943B0BC82F803239F4809159018033F5
:100F2000D1F460E08EE015C0883541F40E940A03D8
:100F3000811111C01092060161E00AC0883759F48E
:100F40000E940A03811107C081E08093060160E0DE
:100F50008DE00E94460F80910601882309F448C065
:100F6000C63419F40E94720343C0C73419F40E94B6
:100F700095033EC0C93419F40E94BE0339C0C2347F
:100F800019F40E94E70334C0C83419F40E940A041B
:100F90002FC0CA3419F40E9433042AC0CC3419F487
:100FA0000E945C0425C0C23519F40E94850420C04B
:100FB000C33529F464E184E10E94E30219C08C2F57
:100FC0008F7D85558330A0F080ED8C0F8A3018F02E
:100FD000C13781F78AE02FE5829FC00111246AE0C2
:100FE00070E00E94E411862F60E08A560E94190387
:100FF000C0935901CF910C944007CF91089584E09C
:101000000895809161018F5F843018F480936101AD
:1010100002C010926101E0916101F0E0E95FFE4FD2
:101020008081865F08950F931F93CF93DF93CDB791
:10103000DEB762970FB6F894DEBF0FBECDBF0E9439
:10104000CF0D00915D0110915E0120915F01309103
:101050006001601771078207930708F4DBC0809175
:101060005A01813009F45FC020F0823009F484C055
:10107000C2C080915C01882309F4CCC010925C014D
:1010800069E070E089E691E00E947C0A0E94010814
:10109000182F682F70E089E691E00E94C50A81E070
:1010A00080935A010E94CF0DDC01CB01845D9E4FDD
:1010B000AF4FBF4F80935D0190935E01A0935F019E
:1010C000B09360014AE0612FCE0101960E947D102D
:1010D0000E94CF0DAB01BC012AE0CE010D960E940B
:1010E000D610BE01635F7F4FCE0107960E945D1050
:1010F00065ED70E0CE0107960E94A511BE016F5FFD
:101100007F4F0E949211BC0182E991E00E94730D11
:10111000CE0107960E94B70FCE010D960E94B70F21
:10112000CE01019661C089E691E00E94820A82E0C8
:1011300080935A010E94CF0DDC01CB014E96A11D78
:10114000B11D80935D0190935E01A0935F01B09308
:1011500060010E94CF0DAB01BC012AE0CE010796D1
:101160000E94D610BE01695F7F4FCE0101960E949A
:101170005D1062EC70E029C080915C018823B9F1B8
:1011800010925B0110925A010E94CF0DDC01CB013D
:101190004E96A11DB11D80935D0190935E01A093B9
:1011A0005F01B09360010E94CF0DAB01BC012AE04A
:1011B000CE0107960E94D610BE01695F7F4FCE0117
:1011C00001960E945D106EEA70E0CE0101960E94C9
:1011D000A511BC0182E991E00E94730DCE01019638
:1011E0000E94B70FCE0107960E94B70F13C081E08F
:1011F00080935B010FC00E94CF0DDC01CB014E96A6
:10120000A11DB11D80935D0190935E01A0935F01CC
:10121000B093600162960FB6F894DEBF0FBECDBFEB
:10122000DF91CF911F910F91089589E691E00E947F
:10123000DE0986E691E00C94DE091F920F920FB64C
:101240000F9211242F933F934F935F936F937F934C
:101250008F939F93AF93BF93EF93FF9380916D0113
:1012600087FF05C010928500109284001BC020915A
:101270006D01022E000C330B80916C0190E0281759
:10128000390784F480916D01082E000C990BFC0144
:10129000EE0FFF1F8E0F9F1FFC01E259FE4F808152
:1012A00086FD15C080916D018F5F80936D01209147
:1012B0006D01022E000C330B80916C0190E0281719
:1012C0003907C4F480916D018C3064F113C08091B2
:1012D0006D01082E000C990BFC01EE0FFF1F8E0F05
:1012E0009F1FFC01E259FE4F808160E08F730E94D6
:1012F000460FD8CF80918400909185000496803469
:101300009C4918F480E49CE905C080918400909188
:101310008500049690938900809388008FEF8093D6
:101320006D013BC0209184003091850080916D015A
:10133000082E000C990BFC01EE0FFF1F8E0F9F1F54
:10134000FC01E259FE4F81819281820F931F90939D
:1013500089008093880080916D01082E000C990B04
:10136000FC01EE0FFF1F8E0F9F1FFC01E259FE4F85
:10137000808186FF12C080916D01082E000C990BB0
:10138000FC01EE0FFF1F8E0F9F1FFC01E259FE4F65
:10139000808161E08F730E94460FFF91EF91BF91B2
:1013A000AF919F918F917F916F915F914F913F91FD
:1013B0002F910F900FBE0F901F901895FC019091E8
:1013C0006C019C30A0F481E0890F80936C019083C4
:1013D000892F90E0FC01EE0FFF1F8E0F9F1FFC0175
:1013E000E259FE4F88EB9BE09283818308958FEF53
:1013F00080830895DF92EF92FF920F931F93CF9314
:10140000DF93EC01D62E7A01890188818C3008F0B7
:101410006AC061E08D2D0E940A0F8881E82FF0E0FC
:101420009F01220F331FE20FF31FE259FE4F9D2D44
:101430009F732081207CD22ED92AD08260E272E074
:10144000AB014E195F0957FF02C04D5F5F4F5595C5
:10145000479555954795498340E659E09A01201BE9
:10146000310B37FF02C02D5F3F4F359527953595DE
:1014700027952A832CE0622F0E94C411289FB00177
:10148000112440E050E09A01260F371FF901EE0FBA
:10149000FF1F2E0F3F1FF901E259FE4F908196FD6D
:1014A00016C04F5F5F4F4C30510569F781110FC077
:1014B0001092800082E0809381001092850010924B
:1014C0008400B19A80916F00826080936F00E88100
:1014D000F0E0CF01880F991FE80FF91FE259FE4F86
:1014E0008081806480838881DF91CF911F910F91EB
:1014F000FF90EF90DF90089520E639E040E252E05F
:101500000C94FA09DC01EC91F0E0CF01880F991FEF
:10151000E80FF91FE259FE4F80818F7B8083089589
:10152000FC0190819C3080F5818128E830E0281B07
:10153000310987FD3395220F331F220F331F6217A6
:1015400073077CF0828128E532E0281B310987FD92
:101550003395220F331F220F331F621773070CF4CA
:101560009B0122503109220F331F4FB7F894892F66
:1015700090E0FC01EE0FFF1F8E0F9F1FFC01E25950
:10158000FE4F328321834FBF0895AF92BF92CF9217
:10159000DF92EF92FF920F931F93CF93DF93EC01B3
:1015A000603282E078070CF03FC077FD06C0653BF3
:1015B00071052CF064EB70E002C060E070E089819E
:1015C00028E830E05901A81AB10887FDB394AA0CA5
:1015D000BB1CAA0CBB1C0B2C000CCC08DD08072E76
:1015E000000C880B990B2A8108E512E0021B1109F7
:1015F00027FD1395000F111F000F111F012E000C66
:10160000220B330B3F932F931F930F9314EBE12E79
:10161000F12C00E010E020E030E0A9010E94760FFC
:101620000F900F900F900F90CE01DF91CF911F91EF
:101630000F91FF90EF90DF90CF90BF90AF900C9400
:10164000900AFC01918D228D892F90E0805C9F4F44
:10165000821B91098F7399270895FC01918D828DCA
:10166000981731F0828DE80FF11D858D90E0089577
:101670008FEF9FEF0895FC01918D828D981761F097
:10168000828DDF01A80FB11D5D968C91928D9F5FB9
:101690009F73928F90E008958FEF9FEF089584EAF3
:1016A0009CE0892B49F080E090E0892B29F00E9492
:1016B000A40C81110C9400000895FC01848DDF01BD
:1016C000A80FB11DA35ABF4F2C91848D90E00196B5
:1016D0008F739927848FA689B7892C93A089B189A4
:1016E0008C9180648C93938D848D981306C00288AE
:1016F000F389E02D80818F7D80830895CF93DF93E0
:10170000EC01888D8823C9F0EA89FB89808185FDF9
:1017100005C0A889B9898C9186FD0FC00FB607FC5A
:10172000F5CF808185FFF2CFA889B9898C9185FF9B
:10173000EDCFCE010E945D0BE7CFDF91CF910895F1
:10174000EF92FF920F931F93CF93DF93EC0181E011
:10175000888F9B8D8C8D981305C0E889F9898081CD
:1017600085FD24C0F62E0B8D10E00F5F1F4F0F7309
:101770001127E02E8C8DE8120CC00FB607FCFACFB3
:10178000E889F989808185FFF5CFCE010E945D0B44
:10179000F1CF8B8DFE01E80FF11DE35AFF4FF08270
:1017A0000B8FEA89FB898081806207C0EE89FF89FF
:1017B0006083E889F98980818064808381E090E09A
:1017C000DF91CF911F910F91FF90EF900895CF92ED
:1017D000DF92EF92FF921F93CF93DF93EC016A01A8
:1017E0007B01122FE889F98982E080834115514EEF
:1017F00061057105B1F060E079E08DE390E0A7014B
:1018000096010E94F811DA01C9010197A109B109F5
:10181000B695A79597958795AC01411580E1580736
:10182000A8F0E889F989108260E874E88EE190E018
:10183000A70196010E94F811BA01A901415051096E
:10184000610971097695679557954795EC85FD85F2
:101850005083EE85FF854083188EEC89FD891083C7
:10186000EA89FB89808180618083EA89FB898081A4
:1018700088608083EA89FB89808180688083EA8927
:10188000FB8980818F7D8083DF91CF911F91FF90B5
:10189000EF90DF90CF9008951F920F920FB60F92A6
:1018A00011242F938F939F93EF93FF93E091A201C5
:1018B000F091A3018081E091A801F091A90182FD3E
:1018C00012C090818091AB018F5F8F732091AC012A
:1018D000821751F0E091AB01F0E0EE56FE4F958F8C
:1018E0008093AB0101C08081FF91EF919F918F9117
:1018F0002F910F900FBE0F901F9018951F920F926F
:101900000FB60F9211242F933F934F935F936F93D2
:101910007F938F939F93AF93BF93EF93FF9382E94E
:1019200091E00E945D0BFF91EF91BF91AF919F916C
:101930008F917F916F915F914F913F912F910F9078
:101940000FBE0F901F90189582E991E00E94210B25
:1019500021E0892B09F420E0822F0895E2E9F1E0EB
:101960001382128288EE93E0A0E0B0E08483958336
:10197000A683B7838FE091E09183808385EC90E02C
:101980009587848784EC90E09787868780EC90E049
:10199000918B808B81EC90E0938B828B82EC90E03A
:1019A000958B848B86EC90E0978B868B118E128EB4
:1019B000138E148E089508950E94470E0E94DB0C2A
:1019C0000E943A01CFE4DBE00E9424022097E1F379
:1019D0000E944F0BF9CFCF92DF92EF92FF920F93BD
:1019E0001F93CF93DF936C017A018B01C0E0D0E0AD
:1019F000CE15DF0589F0D8016D918D01D601ED91ED
:101A0000FC910190F081E02DC6010995892B11F41C
:101A10007E0102C02196ECCFC701DF91CF911F91CB
:101A20000F91FF90EF90DF90CF90089561157105B1
:101A300079F0FB0101900020E9F73197AF01461BD7
:101A4000570BDC01ED91FC910280F381E02D0994AC
:101A500080E090E00895EF92FF920F931F93CF9351
:101A6000DF938C017B01C0E0D0E0F701EC0FFD1F9C
:101A70006491662361F0D801ED91FC910190F081B1
:101A8000E02DC8010995892B11F02196EECFCE01EA
:101A9000DF91CF911F910F91FF90EF900895DC019E
:101AA000ED91FC91DB0114964D915C9115976D9130
:101AB0007C910280F381E02D09946BE171E00C943C
:101AC000160D0F931F93CF93DF93EC010E942B0D04
:101AD0008C01CE010E945D0D800F911FDF91CF918F
:101AE0001F910F9108950F931F93CF93DF93EC01F4
:101AF0000E944F0D8C01CE010E945D0D800F911F41
:101B0000DF91CF911F910F9108951F920F920FB601
:101B10000F9211242F933F938F939F93AF93BF9373
:101B20008091300290913102A0913202B091330243
:101B300030912F0223E0230F2D3720F40196A11DB1
:101B4000B11D05C026E8230F0296A11DB11D2093EB
:101B50002F028093300290933102A0933202B0930F
:101B600033028091340290913502A0913602B091F7
:101B700037020196A11DB11D809334029093350266
:101B8000A0933602B0933702BF91AF919F918F918E
:101B90003F912F910F900FBE0F901F9018952FB768
:101BA000F8946091300270913102809132029091EC
:101BB00033022FBF08953FB7F8948091340290917B
:101BC0003502A0913602B091370226B5A89B05C018
:101BD0002F3F19F00196A11DB11D3FBFBA2FA92FAC
:101BE000982F8827820F911DA11DB11DBC01CD0129
:101BF00042E0660F771F881F991F4A95D1F7089515
:101C00008F929F92AF92BF92CF92DF92EF92FF920C
:101C10006B017C010E94DB0D4B015C01C114D104FE
:101C2000E104F10401F10E94B3110E94DB0DDC011B
:101C3000CB0188199909AA09BB09883E9340A105DF
:101C4000B10560F321E0C21AD108E108F10888EE7D
:101C5000880E83E0981EA11CB11CC114D104E104BC
:101C6000F10419F7DBCFFF90EF90DF90CF90BF909A
:101C7000AF909F908F9008958230910538F0880F33
:101C8000991F880F991F05970197F1F70895789488
:101C900084B5826084BD84B5816084BD85B5826071
:101CA00085BD85B5816085BDEEE6F0E0808181600F
:101CB0008083E1E8F0E0108280818260808380810F
:101CC00081608083E0E8F0E0808181608083E1EBE7
:101CD000F0E0808184608083E0EBF0E080818160CF
:101CE0008083EAE7F0E08081846080838081826085
:101CF000808380818160808380818068808310926E
:101D0000C10008951F93CF93DF93182FEB0161E07B
:101D10000E940A0F209711F460E004C0CF3FD10564
:101D200039F461E0812FDF91CF911F910C94460F20
:101D3000E12FF0E0E050FF4FE491E330F9F048F498
:101D4000E130B9F0E230A1F584B5806284BDC8BD50
:101D500034C0E730E9F0E83019F1E43049F580911A
:101D60008000806280938000D0938B00C0938A00B3
:101D700024C084B5806884BDC7BD1FC08091800029
:101D8000806880938000D0938900C093880015C03C
:101D90008091B00080688093B000C093B3000DC004
:101DA0008091B00080628093B000C093B40005C001
:101DB000C038D1050CF0B5CFAFCFDF91CF911F91D7
:101DC0000895833081F028F4813099F08230A1F0B9
:101DD00008958730A9F08830B9F08430D1F480912B
:101DE00080008F7D03C0809180008F77809380007A
:101DF000089584B58F7702C084B58F7D84BD089522
:101E00008091B0008F7703C08091B0008F7D809368
:101E1000B0000895CF93DF9390E0FC01EC5EFE4F9D
:101E20002491FC01E85DFE4F8491882361F190E0EC
:101E3000880F991FFC01E05BFE4FC591D491FC0116
:101E4000EA5BFE4FA591B491611109C09FB7F89468
:101E50008881209582238883EC912E230BC06230E9
:101E600061F49FB7F8943881822F8095832388830B
:101E7000EC912E2B2C939FBF06C08FB7F894E8816E
:101E80002E2B28838FBFDF91CF9108951F93CF937F
:101E9000DF93282F30E0F901E050FF4F8491F901E2
:101EA000EC5EFE4FD491F901E85DFE4FC491CC2366
:101EB000C9F0162F81110E94E10EEC2FF0E0EE0F19
:101EC000FF1FEA5BFE4FA591B4918FB7F8941111F3
:101ED00005C09C91ED2FE095E92302C0EC91ED2B1C
:101EE000EC938FBFDF91CF911F9108954F925F9236
:101EF0006F927F92AF92BF92CF92DF92EF92FF925A
:101F00000F931F93CF93DF93CDB7DEB729013A012B
:101F10009B01AC01241935094609570989899A8919
:101F2000AB89BC89BC01CD016A197B098C099D096B
:101F30000E94B411A80197012419350946095709CF
:101F40000E941A12CA01B9016A0D7B1D8C1D9D1DCC
:101F5000DF91CF911F910F91FF90EF90DF90CF9085
:101F6000BF90AF907F906F905F904F900895FC016D
:101F7000808191810C94EE12CF93DF93EC018881E4
:101F80009981009711F00E94EE12198218821D8229
:101F90001C821B821A82DF91CF9108950F931F93A9
:101FA000CF93DF93EC018B016F5F7F4F8881998125
:101FB0000E948613009731F0998388831B830A83DC
:101FC00081E001C080E0DF91CF911F910F910895D2
:101FD000CF93DF93EC0188819981892B29F08A8145
:101FE0009B818617970760F4CE010E94CE0F88234D
:101FF00041F08C819D81892B19F4E881F98110824F
:1020000081E0DF91CF910895EF92FF920F931F939C
:10201000CF93DF93EC017B018A01BA010E94E80FA4
:10202000811104C0CE010E94BC0F07C01D830C8328
:10203000B701888199810E946914CE01DF91CF9107
:102040001F910F91FF90EF900895EF92FF920F93E1
:102050001F93CF93DF93EC017B018A01BA010E94A9
:10206000E80F811104C0CE010E94BC0F07C01D8380
:102070000C83B701888199810E945014CE01DF91B1
:10208000CF911F910F91FF90EF900895CF93DF9321
:10209000EC01FB018617970761F060817181611582
:1020A000710529F0448155810E94041002C00E94EC
:1020B000BC0FCE01DF91CF910895FC0111821082F7
:1020C00013821282158214820C944610CF93DF93F0
:1020D000EC016115710559F0FB0101900020E9F751
:1020E0003197AF01461B570B0E94041002C00E949B
:1020F000BC0FCE01DF91CF9108950F931F93CF9323
:10210000DF93CDB7DEB729970FB6F894DEBF0FBEC9
:10211000CDBF8C01862FF8011182108213821282AA
:102120001582148250E0BE016F5F7F4F90E00E94E5
:10213000B314BE016F5F7F4FC8010E9466102996DD
:102140000FB6F894DEBF0FBECDBFDF91CF911F91C8
:102150000F9108950F931F93CF93DF93CDB7DEB701
:1021600062970FB6F894DEBF0FBECDBF8C01CB01D6
:10217000F80111821082138212821582148250E0BB
:10218000BE016F5F7F4F0E947014BE016F5F7F4F73
:10219000C8010E94661062960FB6F894DEBF0FBEAB
:1021A000CDBFDF91CF911F910F9108950F931F9392
:1021B000CF93DF93CDB7DEB7A1970FB6F894DEBF0C
:1021C0000FBECDBF8C01CB01BA01F8011182108284
:1021D000138212821582148230E0AE014F5F5F4F8E
:1021E0000E948614BE016F5F7F4FC8010E94661077
:1021F000A1960FB6F894DEBF0FBECDBFDF91CF9191
:102200001F910F9108950F931F93CF93DF9300D0E9
:10221000CDB7DEB78C016115710561F0CB01698323
:102220007A830E945714AC0169817A81C8010E94A7
:10223000251002C00E94BC0FC8010F900F90DF91C3
:10224000CF911F910F910895FC011182108213828A
:102250001282158214820C940311EF92FF920F9355
:102260001F93CF93DF93FC012481358161157105A4
:1022700011F480E019C041155105A9F07B01EC0172
:102280008A01020F131FB8010E94E80F882389F307
:10229000288139818C819D81B701820F931F0E9413
:1022A00069141D830C8381E0DF91CF911F910F9101
:1022B000FF90EF900895FB01448155816081718109
:1022C0000C942D11EF92FF920F931F93CF93DF93F6
:1022D0006115710511F480E01EC08B01EC01CB018A
:1022E0000E9457140097B1F02C813D817C01E20ED1
:1022F000F31EB701CE010E94E80F882361F3288105
:1023000039818C819D81B801820F931F0E945014E6
:10231000FD82EC8281E0DF91CF911F910F91FF90C0
:10232000EF900895CF93DF93EC01FB014481558139
:10233000608171810E942D11811103C0CE010E9424
:10234000BC0FCE01DF91CF910895CF93DF93EC01C5
:102350000E946211811103C0CE010E94BC0FCE0108
:10236000DF91CF9108950895DB018F939F930E9491
:102370003912BF91AF91A29F800D911DA39F900D27
:10238000B29F900D11240895991B79E004C0991F04
:10239000961708F0961B881F7A95C9F780950895BF
:1023A000AA1BBB1B51E107C0AA1FBB1FA617B7077B
:1023B00010F0A61BB70B881F991F5A95A9F7809597
:1023C0009095BC01CD01089597FB072E16F400945B
:1023D00007D077FD09D00E94D01107FC05D03EF44C
:1023E000909581959F4F0895709561957F4F0895C1
:1023F000A1E21A2EAA1BBB1BFD010DC0AA1FBB1F09
:10240000EE1FFF1FA217B307E407F50720F0A21B7A
:10241000B30BE40BF50B661F771F881F991F1A94E7
:1024200069F760957095809590959B01AC01BD0111
:10243000CF010895052E97FB1EF400940E943112DF
:1024400057FD07D00E94F81107FC03D04EF40C94FE
:10245000311250954095309521953F4F4F4F5F4F2A
:10246000089590958095709561957F4F8F4F9F4F00
:1024700008950E944A12A59F900DB49F900DA49FAD
:10248000800D911D11240895EE0FFF1F0590F4910A
:10249000E02D0994A29FB001B39FC001A39F700DCE
:1024A000811D1124911DB29F700D811D1124911D5C
:1024B0000895CF93DF938230910510F482E090E08D
:1024C000E0913A02F0913B0220E030E0C0E0D0E041
:1024D000309711F14081518148175907C0F04817D2
:1024E000590761F482819381209719F09B838A8335
:1024F0002BC090933B0280933A0226C021153105F0
:1025000019F04217530718F49A01BE01DF01EF01D9
:102510000280F381E02DDCCF2115310509F1281B64
:10252000390B2430310590F412968D919C911397BC
:102530006115710521F0FB019383828304C09093A0
:102540003B0280933A02FD01329644C0FD01E20F46
:10255000F31F81939193225031092D933C933AC0FC
:102560002091380230913902232B41F4209102014D
:1025700030910301309339022093380220910001F9
:10258000309101012115310541F42DB73EB740913D
:10259000040150910501241B350BE0913802F091A4
:1025A0003902E217F307A0F42E1B3F0B2817390757
:1025B00078F0AC014E5F5F4F2417350748F04E0F9F
:1025C0005F1F50933902409338028193919302C068
:1025D000E0E0F0E0CF01DF91CF9108950F931F93DA
:1025E000CF93DF93009709F48CC0FC0132971382DC
:1025F000128200913A0210913B020115110581F4FB
:1026000020813181820F931F20913802309139024D
:102610002817390779F5F0933902E093380271C031
:10262000D80140E050E0AE17BF0750F412962D914C
:102630003C911397AD012115310509F1D901F3CF73
:102640009D01DA013383228360817181860F971F98
:102650008217930769F4EC0128813981260F371F0F
:102660002E5F3F4F318320838A819B8193838283B6
:10267000452B29F4F0933B02E0933A0242C01396B3
:10268000FC93EE931297ED01499159919E01240F0D
:10269000351FE217F30771F480819181840F951F34
:1026A000029611969C938E938281938113969C93AC
:1026B0008E931297E0E0F0E0D80112968D919C91F4
:1026C0001397009719F0F8018C01F6CF8D919C912A
:1026D00098012E5F3F4F820F931F20913802309157
:1026E00039022817390769F4309729F410923B0210
:1026F00010923A0202C013821282109339020093A0
:102700003802DF91CF911F910F910895A0E0B0E0C2
:10271000ECE8F3E10C94EC14EC01009721F4CB010C
:102720000E945912B8C0FC01E60FF71F9C0122500D
:102730003109E217F30708F4ACC0D9010D911C91DF
:10274000119706171707B0F00530110508F49FC060
:10275000C80104978617970708F499C00250110919
:10276000061B170B019311936D937C93CF010E946D
:10277000EE128DC05B01A01AB10A4C01800E911EB1
:10278000A0913A02B0913B0240E050E0E12CF12CE4
:10279000109709F44AC0A815B905D1F56D907C9041
:1027A0001197630182E0C80ED11CCA14DB0480F1CA
:1027B000A3014A195B096A0182E0C80ED11C129676
:1027C000BC9012971396AC91B5E0CB16D10440F0B3
:1027D000B282A38351834083D9016D937C930AC055
:1027E0000E5F1F4FC301800F911FF90191838083FA
:1027F000EB2DFA2FE114F10431F0D7011396FC937D
:10280000EE93129744C0F0933B02E0933A023FC02C
:102810008D919C9111974817590708F4AC017D01DF
:1028200012960D90BC91A02DB3CF8091380290915B
:10283000390288159905E1F446175707C8F48091C5
:10284000000190910101009741F48DB79EB740912E
:10285000040150910501841B950BE817F907C8F492
:10286000F0933902E0933802F901718360830FC05D
:10287000CB010E9459127C01009759F0A801BE01BA
:102880000E946014CE010E94EE12C70104C0CE0166
:1028900002C080E090E0CDB7DEB7EEE00C94081502
:1028A000FB01DC0105900D920020E1F70895FC0189
:1028B00005900020E9F7809590958E0F9F1F089551
:1028C000FB01DC0102C001900D9241505040D8F74D
:1028D0000895FB01DC0101900D920020E1F70895BD
:1028E0004532510520F4423010F00C947B14FB016A
:1028F0001082CB010895BB274A3031F4992322F48A
:10290000BDE2909581959F4F0C94BF1425323105FF
:1029100020F4223010F00C949114FA011082CA01B4
:102920000895BB27FA01A62F62177105810591054D
:10293000330B30FB66F0AA27660F771F881F991F9D
:10294000AA1FA21710F0A21B63953850A9F7A05D2B
:10295000AA3308F0A95DA19336F7B111B1931082A3
:10296000CA010C94D8144532510520F4423010F0BD
:102970000C94BE14FB011082CB010895BB27FB0110
:102980005527AA27880F991FAA1FA41710F0A41B68
:1029900083955051B9F7A05DAA3308F0A95DA193C2
:1029A000009779F7B111B1931192CB010C94D8141F
:1029B000DC01FC01672F71917723E1F7329704C0A6
:1029C0007C916D9370836291AE17BF07C8F3089531
:1029D0002F923F924F925F926F927F928F929F922F
:1029E000AF92BF92CF92DF92EF92FF920F931F931D
:1029F000CF93DF93CDB7DEB7CA1BDB0B0FB6F894CE
:102A0000DEBF0FBECDBF09942A88398848885F840D
:102A10006E847D848C849B84AA84B984C884DF807E
:102A2000EE80FD800C811B81AA81B981CE0FD11D62
:102A30000FB6F894DEBF0FBECDBFED010895F89438
:022A4000FFCFC6
:102A420000003C022000015A875A2D00000000A01D
:102A52000BEB0C210B3B0B2D0B7E0B0D0A006E6159
:0C2A62006E00696E66006F7666002E0044
:00000001FF
